:10000000FC1F0020F900000003E2FF1F03E2FF1FB6
:1000100003E2FF1F03E2FF1F03E2FF1F01E2FF1FD6
:1000200001E2FF1F01E2FF1F01E2FF1F03E2FF1FCA
:1000300003E2FF1F01E2FF1F03E2FF1F03E2FF1FB6
:1000400003E2FF1F03E2FF1F03E2FF1F03E2FF1FA4
:1000500003E2FF1F03E2FF1F03E2FF1F03E2FF1F94
:1000600003E2FF1F03E2FF1F03E2FF1F03E2FF1F84
:1000700003E2FF1F03E2FF1F03E2FF1F03E2FF1F74
:1000800009E7FF1F03E2FF1F03E2FF1F03E2FF1F59
:1000900003E2FF1F03E2FF1F03E2FF1F03E2FF1F54
:1000A00003E2FF1F03E2FF1F03E2FF1F03E2FF1F44
:1000B00003E2FF1F03E2FF1F03E2FF1F03E2FF1F34
:1000C00003E2FF1F03E2FF1F03E2FF1F45E2FF1FE2
:1000D00003E2FF1F03E2FF1F03E2FF1F03E2FF1F14
:1000E00003E2FF1F03E2FF1F03E2FF1F03E2FF1F04
:1000F00003E2FF1F03E2FF1F434B4CF220524DF679
:1001000028101A80188000BF00BFD32123F80E1CCE
:10011000002207204FF4A6411A8123F80A0C3B4A1B
:1001200023F8081C3A483B4B3B491A6058600A7850
:1001300002F00803D8B218B10A7842F008030B7035
:100140003648374B0A2101702422A0211A7003F887
:10015000011C3448027802F00203D9B20029F8D019
:100160003048027802F01003D9B20029F8D12D48A6
:10017000027802F00C03082BF9D12B48032140220E
:10018000017000234270294A29499818884204D2F4
:100190002849585898500433F5E72748274B984288
:1001A0004FF0000302D240F8043BF7E72448254A09
:1001B000195899500433B3F5807FF7D12248026073
:1001C000184A117801F02003D8B20028F8D0154A57
:1001D000117801F04003D8B20028F8D01B4A1C491E
:1001E0001C4B0A60202018700E4A117801F00C0098
:1001F0000C28F9D1184B194902221A60443B1960A6
:1002000062B600F0E9B800BF0E200540823F04004E
:100210000100002B3880044002D007400050064007
:1002200001400640064006400440064000E2FF1F31
:10023000D4ECFF1F1004000000F0FF1F30F5FF1F7B
:100240000000000000F0FF1F08ED00E000000311B7
:10025000448004400040064048800440C01005002F
:10026000184B1A6842F48061174A19600023137012
:100270001649174A0B7013701649174A0B70137002
:10028000164B40F213314FF4517219605A60144BFF
:10029000C0F34431C0F34712197000F01F005A70C8
:1002A000104A98720221042313705174D3740E4BB8
:1002B000882018700D483C224FF4803103F80D2C33
:1002C000016070473480044022F5FF1FA1F4FF1F36
:1002D00024F5FF1F23F5FF1FA0F4FF1F40A00440DB
:1002E00000A0064002A0064010A0064000E100E089
:1002F000114B19684B051ED5104A137801333F2B5B
:1003000088BF00230E490A789A4209D172B60D4A75
:100310004AF2026111804BF28041118062B6F1E72E
:1003200009490A4AC854012010700449084ADBB23E
:10033000BC200B70107070473480044024F5FF1F00
:1003400023F5FF1F0C200540A2F4FF1FA0F4FF1FA0
:1003500003A0064038B545180446AC4204D014F852
:10036000010BFFF7C5FFF8E738BD074B187848B118
:1003700072B606494AF202624BF280430A800B8051
:1003800062B6F2E7704700BFA0F4FF1F0C200540E3
:1003900008B50B4B1868420511D5FFF7E6FF094970
:1003A00009484FF480320A600849002340F20312E2
:1003B00003700A6006484A60064A0370137008BD5D
:1003C0003480044080E100E003A0064040A00440E7
:1003D00022F5FF1FA1F4FF1F01B40248844601BCAF
:1003E000604700BF15E8FF1FFFFFFFFFFFFFFFFF94
:1003F000FFFFFFFFFFFFFFFFFFFFFFFFFFFFFFFF0D
:10040000FFFFFFFFFFFFFFFFFEFFFFFFFEFFFF40BD
:10041000FEE7FEE7F0B50C4B0C4C1A7842F00205F3
:1004200004EBC50682F00102706009481A70067874
:10043000002E0CBF8827C82747EA014186F0010635
:1004400044F835100670F0BD48F4FF1F00E0FF1FB0
:100450009FF4FF1F2DE9F743924A137803F004013C
:10046000C8B208B10421117003F00802D2B2002A08
:1004700000F090818C4D2D782B0940F08781AD08DC
:100480008A4C54F8351004EBC507C1F383000928E2
:100490007F6800F058810D2803D0012840F0738157
:1004A0001CE1796882483A6841608249026044F8F8
:1004B0003510814C8149236001240C7092B280492F
:1004C000B2F5A06F0B8068D021D840F221139A4278
:1004D00000F08B800CD8822A3FD0B2F5817F4ED0BD
:1004E000802A40F0AE80774C002626706670ABE024
:1004F00040F2A1339A4200F0888080339A4200F0A3
:100500008B8040F20230824240F09B8047E040F214
:1005100081618A420BD8B2F5D06F4ED240F2A1531E
:100520009A427FD080339A4240F08B8082E0B2F5CD
:10053000106F0FD008D8B2F5086F40F08280624C7F
:100540002678604C267073E0A2F5FD43403B012BFA
:1005500077D845E081785C4D1EE080885B4B08B120
:100560000F210FE1574C0026267066701B7803F0B0
:100570000202D5B2002D67D00121217064E04C4801
:10058000828851065DD14388002B5AD14F4C95008B
:100590002D19297821F0020129701C465BE044499D
:1005A0008A8850064DD14B88002B4AD1474E940083
:1005B000A519287840F00201EEE74288444B53F831
:1005C000084CA3F10C01002C3BD00C3333F8180C71
:1005D0009042F4D1150A032D0CBF23780B893AE021
:1005E000334A918804292CD130E0818849BBC188E5
:1005F00049B9408800910A460B4600F0D5FA10B977
:10060000324E0F2434700023C7E78088C8B92D48C4
:1006100000F02EFBE8B914E0254B9A888AB900F067
:1006200091FB0CE0818861B900F0B8FA254C20708C
:10063000012310E01E4A908818B900F099FB0028A9
:10064000E1D10F21214B9DE0022304E02823214C1E
:1006500001E01C4C06231648C688B34238BF1E462C
:10066000402E34BF3546402520462946FFF7D2FEAE
:10067000761B2C4404D1402D40F08580354603E0A4
:10068000402E34BF3546402520462946FFF7C2FE9E
:10069000761B2C4401D1402D75D1074B0E4A1C60AE
:1006A000168070E0802007409020074000E0FF1F88
:1006B0008CF4FF1F8000400000F4FF1F9FF4FF1F19
:1006C00004F4FF1F96F4FF1F9EF4FF1FC020074095
:1006D000D4EBFF1F6EECFF1F94F4FF1F4C4B1988E7
:1006E00040F2211291422AD198884A4A18B11188C1
:1006F000DB88994220D8464E1288F188708800978E
:10070000C2EB0109B9F1400F28BF4FF040094B4639
:10071000DFF8008100F048FA70B1B8F80000F28804
:1007200081441FFA89F94A45A8F8009007D83A4849
:100730000021FFF76FFE02E0384B0F211970384897
:1007400044F835001FE0374D2D6895B1364E378897
:10075000402F34BF3C46402428462146FFF75AFE2E
:10076000391B88B2308008B9402C00D128192D4B94
:10077000186027490A88B2F5A06F04D1002048709C
:100780002A4B897819702A4801220270294B0821C6
:10079000197061E6D9071FD52549274B2048022447
:1007A0000C701A70254B264C1860986025481A6109
:1007B000D8609A615C60194B0D2018702248FF23A5
:1007C000037000F8083C0274204A1370204B9F20ED
:1007D000012218700A7018E01A0605D50F4A0D207C
:1007E0008021107002F8401C03F00200C2B22AB14E
:1007F000154801780222017000F8082C03F010035C
:10080000D8B210B10B4A10211170BDE8FE8300BFB1
:100810008CF4FF1F04F4FF1F96F4FF1FC020074055
:100820008000400000F4FF1F94F4FF1F9820074051
:10083000942007408020074048F4FF1F00E0FF1F7E
:1008400008F4FF1F4CF4FF1F882007408C2007404E
:1008500084200740174B1A6842F480201860164B1A
:10086000802119701878144A0006FBD4134B1449E0
:10087000C3F307200870C3F3074008751B0EFF2061
:100880000B7601F81C0C01F8140C01F88C0C117893
:10089000012041F040030021137002F8780C094B4D
:1008A00002F80C1C084902F8880C082210201A6073
:1008B00008707047348004400C21074000E0FF1F9F
:1008C0009C20074004E100E008210740044B054953
:1008D00018780A78904238BF4030801A704700BFBD
:1008E00022F5FF1FA1F4FF1F084B1978084B1A7857
:1008F000914208D0501CC2B23F2A88BF002205494D
:10090000885C1A7070474FF0FF30704722F5FF1F68
:10091000A1F4FF1FE2F4FF1F10B5304B187810F060
:10092000300F21D072B62E490A7832B90F390B78C0
:100930002C4B4021197062B616E062B62A4C2B4847
:10094000237800782A490C78591CC9B23F2988BFFE
:100950000021814202D0274B5C540B46013A12F031
:10096000FF02EFD120480370234A107841B20029DA
:10097000C2B221DA194B187803061DD51F4C204945
:1009800024780B78A3420ED001331448DBB20178EF
:100990001C493F2B88BF0023C85C154908700D31E6
:1009A00008780728EED916490B700C4B187800060A
:1009B00002D5114B7C21197002F04002D0B258B11F
:1009C00006490B7803F04002D0B228B10E4B0A481A
:1009D00000213C221970027010BD00BF04A0064027
:1009E00016A0064011A0064022F5FF1FA1F4FF1F2C
:1009F00007A00640E2F4FF1F03A0064024F5FF1FF6
:100A000023F5FF1FA2F4FF1FA0F4FF1F72B6044BD3
:100A10004AF202624BF280401A80188062B6704738
:100A20000C20054038B542F2107000F0ADF90721F6
:100A30002E4800F0B1F90A2000F0BEF900F0C4F928
:100A40000024FFF743FF40B1FFF74EFF274BE15C67
:100A5000884202D10134072CF3D100F0A5F9072C0C
:100A60000BD0234C6068A0F58052B2F5F83F04D259
:100A7000204D21492B688B4227D1204A204C202031
:100A80004FF4A2752560106042F8140C00F06EF867
:100A9000FFF7E0FE00F082F8072802D0FFF7B6FF6C
:100AA000F8E7144B002119600B2416482025056037
:100AB000154DFFF7ABFF013DFBD1013CF5D1FFF731
:100AC000A5FF72B6114A1470FEE772B610480460B2
:100AD000FFF79CFF00222A60206861684FF0FF3317
:100AE0009E4685460847002038BD00BFC4ECFF1F66
:100AF00000100000FC1F00204643627494F00F4079
:100B000014B004408CF00F40A0860100082107407B
:100B100008ED00E0030610B520D510F0400407D022
:100B20000F48104B0A220E2102701970002213E0A8
:100B300010F0300208D00A4A0A4B0A2111700A4903
:100B4000082018700C7009E010F0010007D0044B69
:100B50000A2018700348017003480270012010BD7C
:100B6000CCECFF1F2DF5FF1F2CF5FF1F094B1A784A
:100B70001106FBD508488121FF22017000F8012CE5
:100B80007021802019701870024B1A781206FBD55C
:100B9000704700BF0000024007000240014B187878
:100BA000704700BFCCECFF1FF0B59C18B4F5806F08
:100BB000059E01D88C4204D9264B0A2119700822BF
:100BC00020E0254DAA1800259D4203D0775D57559A
:100BD0000135F9E78C423BD11E4B1A78022A05D029
:100BE000052A03D00A2018700F220BE01B49194A6E
:100BF0000B7813F0800F02D0194E337833B10A21ED
:100C000011700E22174802700020F0BD24B915485B
:100C10000623137004701BE08402134804F580540B
:100C2000046001251148357009260670C4F3074693
:100C3000240AE4B200F8016C00F8024C00F8033C0E
:100C4000702008708020087003211170054A13700D
:100C50000120F0BDCCECFF1F00000014000002409A
:100C60002CF5FF1F2DF5FF1F28F5FF1F0700024081
:100C70002C4AF8B51378032B044642D3042B08D929
:100C8000062B3ED107201070274A4FF47A7111606D
:100C900037E0264D264E2F783078012F02D0022FD4
:100CA00024D11EE00421FFF735FFF8B92149224A7B
:100CB00002232B700B680B211170C3F3074102F85C
:100CC000011CC3F30721DBB202F8021C02F8033C4B
:100CD0001A4A8021177002F8010C702030703170B0
:100CE00004E00721FFF716FF00B928700D4B1A78B2
:100CF0000A2A06D00D48017809B9052200E004222D
:100D00001A700F4B084918780B68064920701A0AA8
:100D1000180C63700B78A2700022E070237162716E
:100D20000120F8BDCCECFF1FD0ECFF1F2CF5FF1FFE
:100D30000000024028F5FF1F070002400B000240A0
:100D40002DF5FF1F084B09481A780A2A05D10222FF
:100D5000002101701A70012070470A2119700F23B9
:100D600003700020704700BFCCECFF1F2DF5FF1F64
:100D7000034B04490020022208701A7001207047BA
:100D8000CCECFF1F2DF5FF1F01B40248844601BCC7
:100D9000604700BF6102000001B40248844601BC04
:100DA000604700BF5503000001B40248844601BCFF
:100DB000604700BF9103000001B40248844601BCB3
:100DC000604700BFF102000001B40248844601BC44
:100DD000604700BF6B030000000100001CECFF1F18
:100DE000120000000002000040ECFF1F1B0000008A
:100DF00000030000C0ECFF1F000000000103000022
:100E00002EECFF1F000000000203000096ECFF1F05
:100E100000000000EE0300005CECFF1F000000007B
:100E200000000000000000000000000012010002AD
:100E300000000040501D8260010101020001120308
:100E40007300630061006E006C0069006D00650056
:100E500009021B0001010280320904000000FE01AA
:100E6000020209210D1027000401010012034D00A8
:100E70005300460054003100300030007E0028004E
:100E8000000000010400010000000000000000015B
:100E900057494E555342000000000000000000007A
:100EA0000000000000002A034600610064006500A5
:100EB000630061006E0064007900200042006F0052
:100EC0006F0074006C006F006100640065007200C8
:100ED0000403090446432D426F6F740002000000B2
:040EE000010000000D
:00000001FF
