:10000000FC1F0020F900000003E2FF1F03E2FF1FB6
:1000100003E2FF1F03E2FF1F03E2FF1F01E2FF1FD6
:1000200001E2FF1F01E2FF1F01E2FF1F03E2FF1FCA
:1000300003E2FF1F01E2FF1F03E2FF1F03E2FF1FB6
:1000400003E2FF1F03E2FF1F03E2FF1F03E2FF1FA4
:1000500003E2FF1F03E2FF1F03E2FF1F03E2FF1F94
:1000600003E2FF1F03E2FF1F03E2FF1F03E2FF1F84
:1000700003E2FF1F03E2FF1F03E2FF1F03E2FF1F74
:1000800009E7FF1F03E2FF1F03E2FF1F03E2FF1F59
:1000900003E2FF1F03E2FF1F03E2FF1F03E2FF1F54
:1000A00003E2FF1F03E2FF1F03E2FF1F03E2FF1F44
:1000B00003E2FF1F03E2FF1F03E2FF1F03E2FF1F34
:1000C00003E2FF1F03E2FF1F03E2FF1F45E2FF1FE2
:1000D00003E2FF1F03E2FF1F03E2FF1F03E2FF1F14
:1000E00003E2FF1F03E2FF1F03E2FF1F03E2FF1F04
:1000F00003E2FF1F03E2FF1F434B4CF220524DF679
:1001000028101A80188000BF00BFD32123F80E1CCE
:10011000002207204FF4A6411A8123F80A0C3B4A1B
:1001200023F8081C3A483B4B3B491A6058600A7850
:1001300002F00803D8B218B10A7842F008030B7035
:100140003648374B0A2101702422A0211A7003F887
:10015000011C3448027802F00203D9B20029F8D019
:100160003048027802F01003D9B20029F8D12D48A6
:10017000027802F00C03082BF9D12B48032140220E
:10018000017000234270294A29499818884204D2F4
:100190002849585898500433F5E72748274B984288
:1001A0004FF0000302D240F8043BF7E72448254A09
:1001B000195899500433B3F5807FF7D12248026073
:1001C000184A117801F02003D8B20028F8D0154A57
:1001D000117801F04003D8B20028F8D01B4A1C491E
:1001E0001C4B0A60202018700E4A117801F00C0098
:1001F0000C28F9D1184B194902221A60443B1960A6
:1002000062B600F0E9B800BF0E200540823F04004E
:100210000100002B3880044002D007400050064007
:1002200001400640064006400440064000E2FF1F31
:10023000D4ECFF1F1004000000F0FF1F30F5FF1F7B
:100240000000000000F0FF1F08ED00E000000311B7
:10025000448004400040064048800440C01005002F
:10026000184B1A6842F48061174A19600023137012
:100270001649174A0B7013701649174A0B70137002
:10028000164B40F213314FF4517219605A60144BFF
:10029000C0F34431C0F34712197000F01F005A70C8
:1002A000104A98720221042313705174D3740E4BB8
:1002B000882018700D483C224FF4803103F80D2C33
:1002C000016070473480044022F5FF1FA1F4FF1F36
:1002D00024F5FF1F23F5FF1FA0F4FF1F40A00440DB
:1002E00000A0064002A0064010A0064000E100E089
:1002F000114B19684B051ED5104A137801333F2B5B
:1003000088BF00230E490A789A4209D172B60D4A75
:100310004AF2026111804BF28041118062B6F1E72E
:1003200009490A4AC854012010700449084ADBB23E
:10033000BC200B70107070473480044024F5FF1F00
:1003400023F5FF1F0C200540A2F4FF1FA0F4FF1FA0
:1003500003A0064038B545180446AC4204D014F852
:10036000010BFFF7C5FFF8E738BD074B187848B118
:1003700072B606494AF202624BF280430A800B8051
:1003800062B6F2E7704700BFA0F4FF1F0C200540E3
:1003900008B50B4B1868420511D5FFF7E6FF094970
:1003A00009484FF480320A600849002340F20312E2
:1003B00003700A6006484A60064A0370137008BD5D
:1003C0003480044080E100E003A0064040A00440E7
:1003D00022F5FF1FA1F4FF1F01B40248844601BCAF
:1003E000604700BF15E8FF1FFFFFFFFFFFFFFFFF94
:1003F000FFFFFFFFFFFFFFFFFFFFFFFFFFFFFFFF0D
:10040000FFFFFFFFFFFFFFFFFEFFFFFFFEFFFF40BD
:10041000FEE7FEE7F0B50C4B0C4C1A7842F00205F3
:1004200004EBC50682F00102706009481A70067874
:10043000002E0CBF8827C82747EA014186F0010635
:1004400044F835100670F0BD48F4FF1F00E0FF1FB0
:100450009FF4FF1F2DE9F743924A137803F004013C
:10046000C8B208B10421117003F00802D2B2002A08
:1004700000F090818C4D2D782B0940F08781AD08DC
:100480008A4C54F8351004EBC507C1F383000928E2
:100490007F6800F058810D2803D0012840F0738157
:1004A0001CE1796882483A6841608249026044F8F8
:1004B0003510814C8149236001240C7092B280492F
:1004C000B2F5A06F0B8068D021D840F221139A4278
:1004D00000F08B800CD8822A3FD0B2F5817F4ED0BD
:1004E000802A40F0AE80774C002626706670ABE024
:1004F00040F2A1339A4200F0888080339A4200F0A3
:100500008B8040F20230824240F09B8047E040F214
:1005100081618A420BD8B2F5D06F4ED240F2A1531E
:100520009A427FD080339A4240F08B8082E0B2F5CD
:10053000106F0FD008D8B2F5086F40F08280624C7F
:100540002678604C267073E0A2F5FD43403B012BFA
:1005500077D845E081785C4D1EE080885B4B08B120
:100560000F210FE1574C0026267066701B7803F0B0
:100570000202D5B2002D67D00121217064E04C4801
:10058000828851065DD14388002B5AD14F4C95008B
:100590002D19297821F0020129701C465BE044499D
:1005A0008A8850064DD14B88002B4AD1474E940083
:1005B000A519287840F00201EEE74288444B53F831
:1005C000084CA3F10C01002C3BD00C3333F8180C71
:1005D0009042F4D1150A032D0CBF23780B893AE021
:1005E000334A918804292CD130E0818849BBC188E5
:1005F00049B9408800910A460B4600F0D5FA10B977
:10060000324E0F2434700023C7E78088C8B92D48C4
:1006100000F02EFBE8B914E0254B9A888AB900F067
:1006200091FB0CE0818861B900F0B8FA254C20708C
:10063000012310E01E4A908818B900F099FB0028A9
:10064000E1D10F21214B9DE0022304E02823214C1E
:1006500001E01C4C06231648C688B34238BF1E462C
:10066000402E34BF3546402520462946FFF7D2FEAE
:10067000761B2C4404D1402D40F08580354603E0A4
:10068000402E34BF3546402520462946FFF7C2FE9E
:10069000761B2C4401D1402D75D1074B0E4A1C60AE
:1006A000168070E0802007409020074000E0FF1F88
:1006B0008CF4FF1F8000400000F4FF1F9FF4FF1F19
:1006C00004F4FF1F96F4FF1F9EF4FF1FC020074095
:1006D000D4EBFF1F6EECFF1F94F4FF1F4C4B1988E7
:1006E00040F2211291422AD198884A4A18B11188C1
:1006F000DB88994220D8464E1288F188708800978E
:10070000C2EB0109B9F1400F28BF4FF040094B4639
:10071000DFF8008100F048FA70B1B8F80000F28804
:1007200081441FFA89F94A45A8F8009007D83A4849
:100730000021FFF76FFE02E0384B0F211970384897
:1007400044F835001FE0374D2D6895B1364E378897
:10075000402F34BF3C46402428462146FFF75AFE2E
:10076000391B88B2308008B9402C00D128192D4B94
:10077000186027490A88B2F5A06F04D1002048709C
:100780002A4B897819702A4801220270294B0821C6
:10079000197061E6D9071FD52549274B2048022447
:1007A0000C701A70254B264C1860986025481A6109
:1007B000D8609A615C60194B0D2018702248FF23A5
:1007C000037000F8083C0274204A1370204B9F20ED
:1007D000012218700A7018E01A0605D50F4A0D207C
:1007E0008021107002F8401C03F00200C2B22AB14E
:1007F000154801780222017000F8082C03F010035C
:10080000D8B210B10B4A10211170BDE8FE8300BFB1
:100810008CF4FF1F04F4FF1F96F4FF1FC020074055
:100820008000400000F4FF1F94F4FF1F9820074051
:10083000942007408020074048F4FF1F00E0FF1F7E
:1008400008F4FF1F4CF4FF1F882007408C2007404E
:1008500084200740174B1A6842F480201860164B1A
:10086000802119701878144A0006FBD4134B1449E0
:10087000C3F307200870C3F3074008751B0EFF2061
:100880000B7601F81C0C01F8140C01F88C0C117893
:10089000012041F040030021137002F8780C094B4D
:1008A00002F80C1C084902F8880C082210201A6073
:1008B00008707047348004400C21074000E0FF1F9F
:1008C0009C20074004E100E008210740044B054953
:1008D00018780A78904238BF4030801A704700BFBD
:1008E00022F5FF1FA1F4FF1F084B1978084B1A7857
:1008F000914208D0501CC2B23F2A88BF002205494D
:10090000885C1A7070474FF0FF30704722F5FF1F68
:10091000A1F4FF1FE2F4FF1F10B5304B187810F060
:10092000300F21D072B62E490A7832B90F390B78C0
:100930002C4B4021197062B616E062B62A4C2B4847
:10094000237800782A490C78591CC9B23F2988BFFE
:100950000021814202D0274B5C540B46013A12F031
:10096000FF02EFD120480370234A107841B20029DA
:10097000C2B221DA194B187803061DD51F4C204945
:1009800024780B78A3420ED001331448DBB20178EF
:100990001C493F2B88BF0023C85C154908700D31E6
:1009A00008780728EED916490B700C4B187800060A
:1009B00002D5114B7C21197002F04002D0B258B11F
:1009C00006490B7803F04002D0B228B10E4B0A481A
:1009D00000213C221970027010BD00BF04A0064027
:1009E00016A0064011A0064022F5FF1FA1F4FF1F2C
:1009F00007A00640E2F4FF1F03A0064024F5FF1FF6
:100A000023F5FF1FA2F4FF1FA0F4FF1F72B6044BD3
:100A10004AF202624BF280401A80188062B6704738
:100A20000C20054038B542F2107000F0ADF90721F6
:100A30002E4800F0B1F90A2000F0BEF900F0C4F928
:100A40000024FFF743FF40B1FFF74EFF274BE15C67
:100A5000884202D10134072CF3D100F0A5F9072C0C
:100A60000BD0234C6068A0F58052B2F5F83F04D259
:100A7000204D21492B688B4227D1204A204C202031
:100A80004FF4A2752560106042F8140C00F06EF867
:100A9000FFF7E0FE00F082F8072802D0FFF7B6FF6C
:100AA000F8E7144B002119600B2416482025056037
:100AB000154DFFF7ABFF013DFBD1013CF5D1FFF731
:100AC000A5FF72B6114A1470FEE772B610480460B2
:100AD000FFF79CFF00222A60206861684FF0FF3317
:100AE0009E4685460847002038BD00BFC4ECFF1F66
:100AF00000100000FC1F00204643627494F00F4079
:100B000014B004408CF00F40A0860100082107407B
:100B100008ED00E0030610B520D510F0400407D022
:100B20000F48104B0A220E2102701970002213E0A8
:100B300010F0300208D00A4A0A4B0A2111700A4903
:100B4000082018700C7009E010F0010007D0044B69
:100B50000A2018700348017003480270012010BD7C
:100B6000CCECFF1F2DF5FF1F2CF5FF1F094B1A784A
:100B70001106FBD508488121FF22017000F8012CE5
:100B80007021802019701870024B1A781206FBD55C
:100B9000704700BF0000024007000240014B187878
:100BA000704700BFCCECFF1FF0B59C18B4F5806F08
:100BB000059E01D88C4204D9264B0A2119700822BF
:100BC00020E0254DAA1800259D4203D0775D57559A
:100BD0000135F9E78C423BD11E4B1A78022A05D029
:100BE000052A03D00A2018700F220BE01B49194A6E
:100BF0000B7813F0800F02D0194E337833B10A21ED
:100C000011700E22174802700020F0BD24B915485B
:100C10000623137004701BE08402134804F580540B
:100C2000046001251148357009260670C4F3074693
:100C3000240AE4B200F8016C00F8024C00F8033C0E
:100C4000702008708020087003211170054A13700D
:100C50000120F0BDCCECFF1F00000014000002409A
:100C60002CF5FF1F2DF5FF1F28F5FF1F0700024081
:100C70002C4AF8B51378032B044642D3042B08D929
:100C8000062B3ED107201070274A4FF47A7111606D
:100C900037E0264D264E2F783078012F02D0022FD4
:100CA00024D11EE00421FFF735FFF8B92149224A7B
:100CB00002232B700B680B211170C3F3074102F85C
:100CC000011CC3F30721DBB202F8021C02F8033C4B
:100CD0001A4A8021177002F8010C702030703170B0
:100CE00004E00721FFF716FF00B928700D4B1A78B2
:100CF0000A2A06D00D48017809B9052200E004222D
:100D00001A700F4B084918780B68064920701A0AA8
:100D1000180C63700B78A2700022E070237162716E
:100D20000120F8BDCCECFF1FD0ECFF1F2CF5FF1FFE
:100D30000000024028F5FF1F070002400B000240A0
:100D40002DF5FF1F084B09481A780A2A05D10222FF
:100D5000002101701A70012070470A2119700F23B9
:100D600003700020704700BFCCECFF1F2DF5FF1F64
:100D7000034B04490020022208701A7001207047BA
:100D8000CCECFF1F2DF5FF1F01B40248844601BCC7
:100D9000604700BF6102000001B40248844601BC04
:100DA000604700BF5503000001B40248844601BCFF
:100DB000604700BF9103000001B40248844601BCB3
:100DC000604700BFF102000001B40248844601BC44
:100DD000604700BF6B030000000100001CECFF1F18
:100DE000120000000002000040ECFF1F1B0000008A
:100DF00000030000C0ECFF1F000000000103000022
:100E00002EECFF1F000000000203000096ECFF1F05
:100E100000000000EE0300005CECFF1F000000007B
:100E200000000000000000000000000012010002AD
:100E300000000040501D8260010101020001120308
:100E40007300630061006E006C0069006D00650056
:100E500009021B0001010280320904000000FE01AA
:100E6000020209210D1027000401010012034D00A8
:100E70005300460054003100300030007E0028004E
:100E8000000000010400010000000000000000015B
:100E900057494E555342000000000000000000007A
:100EA0000000000000002A034600610064006500A5
:100EB000630061006E0064007900200042006F0052
:100EC0006F0074006C006F006100640065007200C8
:100ED0000403090446432D426F6F740002000000B2
:040EE000010000000D
:10100000FC1F00200D110000FB100000FB10000071
:10101000FB100000FB100000FB100000F9100000A6
:10102000F9100000F9100000F9100000FB1000009A
:10103000FB100000F9100000FB100000FD10000084
:10104000FB100000FB100000FB1000001946000020
:10105000FB100000FB100000FB100000FB10000064
:10106000FB100000FB100000FB100000FB10000054
:10107000FB100000FB100000FB100000FB10000044
:10108000A1200000FB100000FB100000FB1000007E
:10109000FB100000FB100000FB100000FB10000024
:1010A000FB100000FB100000FB100000FB10000014
:1010B000FB100000FB100000FB100000FB10000004
:1010C000FB100000FB100000FB1000005D1700008B
:1010D000FB100000FB100000FB100000FB100000E4
:1010E000FB100000FB100000FB100000FB100000D4
:1010F000FB100000FB100000FEE7FEE7024B1A6841
:10110000501C1860704700BF8009002010B50023F4
:10111000204A21499818884204D2204958589850AA
:101120000433F5E71E481F4CA04203D2002440F8C8
:10113000044BF8E71C4B4BF67F3207201A6043F84C
:10114000040C1A4C21780A06FBD5194A8123137026
:10115000FF207021802302F8010C21702370134CB2
:1011600022781306FBD513491348814203D200228B
:1011700041F8042BF8E762B600F064F80F4C104910
:101180008C4203D054F8043B9847F8E701F056F935
:10119000FEE700BF8009002080090020F849000018
:1011A00080090020A41E002014E000E0000002409E
:1011B000070002400000001400080014F449000079
:1011C000F8490000014B1868704700BF00D0034089
:1011D000044B054900221A600A60044A106010207E
:1011E0001860704714D0034004D0034000D003407F
:1011F00000280EDB02024FF48073B2F5004F06D3D5
:10120000013B012BC0EB020101D00A46F5E7100AB1
:1012100010E0404202024FF48073B2F5014F06D352
:10122000013B012BC0EB020101D00A46F5E7110A90
:10123000C1F58070013B024940EA03200860704715
:101240000CD00340104B114A00204BF6FF7110B533
:1012500018600F4C596028231360936013619361E9
:10126000136293621363936309222260094C206026
:101270000948016009490B608B60094B1A60BDE8A1
:10128000104000F043BD00BF048003400C800340C9
:101290000080034004900340089003400C900340FA
:1012A0000090034010B500234FF4377242FA03F266
:1012B000914202D80133072BF6D1164A42FA03F2C3
:1012C00002EB5102B2FBF1F101394FF6FF7291428C
:1012D00028BF1146C21E012A06D80F4A0F4C002013
:1012E000106020600E480FE0421F012A06D909282D
:1012F00004D00A2802D01438032809D8094A0A4C15
:10130000002010602060094843F00803016013606A
:1013100010BD00BF006CDC0200900340049003404D
:10132000089003400080034004800340088003408D
:10133000212810B518D80D4A52F8303093F8804261
:101340003CB1012011B183F8800010BD83F8000189
:1013500010BD02EBC00043681A6811B142F00301EE
:1013600001E022F00201196010BD00BFE846000054
:10137000212805D8034B53F8300090F8000270473D
:1013800000207047E8460000212816D80B4A02EBDF
:10139000C00301295B6852F8302004D182F8801222
:1013A0004FF4A27108E0002082F8800211B94FF4D6
:1013B000807101E040F2031119607047E8460000B7
:1013C000002910B5044601DC00215EE0FF2901D9A7
:1013D00001215AE0C21ED3B2012B94BF2F4B304BD8
:1013E0001868431C4B431B0A142A49D8DFE802F053
:1013F0000B11171D48482329484848484848484881
:10140000482F353B410027484FF45172036026486E
:1014100034E0264A264813604FF451722EE02549E5
:1014200025480B6040F2444228E0244840F2444200
:101430000360234822E0234A2348136040F24442D9
:101440001CE0224922480B6040F2444216E0214849
:1014500040F244420360204810E0204A20481360D4
:1014600040F244420AE01F491F480B6040F24442E8
:1014700004E01E491E480B6040F24442026010BD69
:101480007F292046D4BF00210121FFF751FF2046CC
:101490000121BDE81040FFF777BF00BF089003406F
:1014A000088003401090034030900440189003409F
:1014B00034900440488003401CC004403080034006
:1014C00010C00440208003400CB00440288003403A
:1014D00010B004403880034014C0044040800340F2
:1014E00018C004401080034004B00440188003403A
:1014F00008B0044072B60B4B0B480C491A680368DD
:10150000086862B6410102D5322A88BF0133C2F5AC
:101510003B427F323021B2FBF1F24FF47A7000FB94
:101520000320704718E000E08009002004ED00E08F
:1015300038B50446FFF7DEFF054654B1FFF7DAFF82
:10154000401BB0F57A7FF9D3013C02D005F57A75DE
:10155000F4E738BD1FB5174B1749222203205870F6
:101560001A700C68154B03941A68154802920168AA
:10157000144C019123680093134B00221DF80200C4
:101580001249434001324B43102AF7D100221DF883
:1015900002400E4807496340434301EB42001A21D1
:1015A000B3FBF1F401FB143101324131102A4180C7
:1015B000EDD11FBD00000014548004405880044049
:1015C0005C80044060800440C59D1C819301000143
:1015D00070B5134C94F8802004F14005002A08BF30
:1015E000254600238B4203D0C65CEE540133F9E755
:1015F00094F8811000290CBF8820C82040EA0343DA
:1016000042F00205074840F83530054B81F00101F2
:1016100082F0010283F8811083F8802070BD00BF42
:101620008409002000E0FF1F012809D172B6054B94
:10163000D3F8840010B14268C3F8842062B67047C2
:10164000002070478409002001280BD1064BD3F8F5
:10165000881072B6002019B10A8849688018FAE724
:1016600062B67047002070478409002001280AD123
:10167000064BD3F8881072B6002011B101304968CA
:10168000FBE762B670470020704700BF8409002066
:1016900072B6114B197801F00802D3B22BB10F4B7F
:1016A0000F4A196A41B1996A59B162B60C4B0022CE
:1016B00083F88C2000F0ACBB0A49083058621962EC
:1016C00003E00830D8620848986292F88C30581EBF
:1016D00082F88C0062B67047F847000000E0FF1FF8
:1016E0008409002088004000C800400001282ED155
:1016F00072B6174890F88D30032B08D8DFE803F056
:1017000014021604022200E00422124B10E0D0F86A
:1017100088200F4B12B9C3F8881002E0D3F890303C
:101720005960C0F8901011E0032200E005220A4B36
:1017300080F88D2013F0080F01F108000988586027
:101740000CBF8822C82242EA0140186062B6704786
:101750008409002038E0FF1F30E0FF1FF8B5B54ACC
:10176000137803F00401C8B208B10421117003F02A
:101770000802D2B2002A00F06E82AF4D2A78AF4D37
:1017800013094FEA920740F0E18105EBC70155F8D4
:1017900037204868C2F38301092900F0AD810D2983
:1017A00006D0012940F0CE81A54B45F83730C9E17C
:1017B000A44C02684068A249C4F8A0000120C4F803
:1017C0009C2045F8371092B200F568718A42C4F83F
:1017D000A43084F8810000F018811CD8B2F5817F14
:1017E00000F0C48009D8802A00F0A180822A00F08D
:1017F000A380212A40F04B8140E1B2F5E07FC0F0A8
:101800004681B2F5E17FC0F0EA8040F202339A42AD
:1018100040F03D81BDE040F2816082420DD8B2F5DA
:10182000D06F80F0C980B2F5A06F00F0348140F233
:10183000A1539A4240F02B8116E1B2F5106F12D0FD
:101840000AD8B2F5086F40F022817E4C94F8A85077
:10185000012304F8945F25E1A2F5FD42403A012AF4
:1018600000F21581C5E094F89E0084F8A8002C6A67
:10187000200603D5686A083800F0CAFA714ED6F817
:10188000840020B1456800F0C3FA2846F9E7C6F89D
:101890008400C6F8AC00D6F8880020B1446800F097
:1018A000B7FA2046F9E7674E96F88D50C6F88800DB
:1018B000AA1EC6F89000032A08D8DFE802F0020446
:1018C0000204002300E0012386F88D305E485F4D5E
:1018D0005C4C002186F88C10067806F00802D3B222
:1018E0002E70FBB100F068FA5449B0B9086294F860
:1018F0008C00461C84F88C6000F05EFA4F4D38B9BD
:10190000504BA86293F88C20511C83F88C1009E08E
:101910000830E8624A48A86204E04D4C083048624A
:101920000C62E9E7454E00233363B363B3E084F808
:10193000943084F89530B0E0424CB4F8A0100129FE
:1019400000F2A580434A8D000026AB1884F894600D
:1019500084F89560187800F00201CEB2002E00F0F5
:101960009C80012504F8945F02239BE0B4F8A0005A
:1019700000F07F02012A00F38A80B4F89E30002B29
:1019800040F08580334E8400A519297821F00202A9
:1019900010E02C48B0F8A02002F07F01012976DC8D
:1019A000B0F89E30002B72D12A4E9400A5192878E9
:1019B00040F002022A706EE0B4F89E20264B53F8E5
:1019C000084CA3F10C01002C61D00C3333F8180C37
:1019D0009042F4D1160A032E15D00B8962E0194B00
:1019E000B3F8A01011B1012951D159E004231B4CC7
:1019F00058E0144BB3F8A010042901D1184C02E0B0
:101A0000052944D1174C23784CE0B4F8A020012AD2
:101A10003DD194F8B01084F8943084F8963084F86E
:101A2000973084F8993084F8952084F8981006232C
:101A300034E000BF802007409020074000E0FF1FF7
:101A4000C800400084090020F8470000C420074077
:101A500088004000C0200740084800009C1E00206D
:101A6000FA480000684800009C4CB4F8A030012BF4
:101A70000DD194F8B05004F8945F13E0974BB3F88D
:101A8000A000012803D183F8B000002303E09449AB
:101A90000F220A702DE01C4604E00223943401E07A
:101AA000904C04238D48B0F8A260B34238BF1E4664
:101AB000402E34BF3546402520462946FFF788FD95
:101AC000761B2C4403D1402D13D1354603E0402E24
:101AD00034BF3546402520462946FFF779FD761B61
:101AE0002C4401D1402D04D17C4BC3F8A440A3F871
:101AF000B26001227C4924E0784ED6F8A450A5B10A
:101B0000B6F8B270402F34BF3C46402428462146E8
:101B1000FFF75EFD381B83B2A6F8B2300BB9402C3C
:101B200000D12B196D4AC2F8A4306C49B1F89C0061
:101B3000B0F5A06F06D1002381F89D3091F89E206A
:101B40006A490A70684B0120187080E005EBC706EF
:101B50005C1E716802F00803DAB2A1F10800E4B279
:101B6000002A46D000F054F95C4B03EB8401D1F815
:101B7000882022B35068C1F88800181902F10801C2
:101B8000716090F88D10032910D8DFE801F002058C
:101B9000080B1C19032307E01C19022304E01C197D
:101BA000052301E01C19042384F88D3016F0080F7A
:101BB00012880CBF8820C82040EA024145E018196D
:101BC00090F88D20032A0BD8DFE802F0414102058E
:101BD0001C19002301E01C19012384F88D3036E024
:101BE00016F0080F1C440CBF0221032184F88D104D
:101BF0002DE055F837301B0C21F8083CFBB141F8BB
:101C0000042C3649A300CA18D2F8844014B9C2F88B
:101C1000840002E0D2F8AC205060C9182F4CC1F803
:101C2000AC0000F0C9F810B10830706007E045F86A
:101C3000370094F88C00431C84F88C3007E02C4962
:101C40002C4A16F0080F08BF114645F837102A49EC
:101C500008220A7083E5D90725D52348274B1F4959
:101C600002240470234C59611C609C6081F8802020
:101C700001F1B40501F1F40440311A619A61D961AE
:101C80005D60DC60164B0D2119701D49FF230B7040
:101C900001F8083C0A741B4A13701B4B9F21012258
:101CA00019700270F8BD1A0605D50D4A0D20802165
:101CB000107002F8401C03F00200C2B22AB11048B2
:101CC00001780222017000F8082C03F01003D8B24A
:101CD00010B1094A10211170F8BD00BF840900201D
:101CE000C0200740A01E00209420074098200740F5
:101CF000C8004000880040008020074000E0FF1F2F
:101D0000882007408C2007408420074008B500F059
:101D100049F8FFF71FFC1D4B1D4800221A609A600E
:101D20001A619A611A6201685A60DA605A61DA616E
:101D30005A6241F4802202601648802101700178C5
:101D4000144A0906FBD41449C3F307200870C3F3EF
:101D5000074008751B0EFF200B7601F81C0C01F8DC
:101D6000140C01F88C0C1178012041F04003002183
:101D7000137002F8780C094B02F80C1C084902F8A1
:101D8000880C082210201A60087008BD00E0FF1FB0
:101D9000348004400C2107409C20074004E100E00F
:101DA00008210740034B4FF0FF321A605A609A60D7
:101DB000DA607047B80A002010B572B60023124AE4
:101DC00052F8231011B90133042BF8D1B1FA81F084
:101DD00000EB4312672A02D962B6002010BD02F060
:101DE0001F004FF0004424FA00F021EA00010648E9
:101DF00040F8231062B6054948235A438818002347
:101E00008B50436010BD00BFB80A002040ECFF1F9C
:101E10000F4B4822C11AB1FBF2F3672B16D80D49BC
:101E20000A7822B10C490A780AB1FFF731BC590986
:101E300072B60A4A4FF0004003F01F0320FA03F382
:101E400052F82100034342F8213062B6704700BFC8
:101E500040ECFF1F100A00202C0A0020B80A0020C6
:101E600072B6044B4AF202624BF280401A8018802C
:101E700062B670470C200540164B1A6842F4806128
:101E80001960154B00221A705A709A70DA701A7124
:101E9000124B40F213314FF4517219605A60104BDB
:101EA000C0F34431C0F34712197000F01F005A709C
:101EB0000C4A98720221042313705174D3740A4B94
:101EC0008820187009483C224FF4803103F80D2C0B
:101ED00001607047348004402200001440A0044098
:101EE00000A0064002A0064010A0064000E100E06D
:101EF00008B50C4B1868430500D408BD0A4A13798D
:101F000013B1FFF7ADFFF9E708494FF480300860DF
:101F100007480370074840F20311016041601370E5
:101F2000537008BD348004402200001480E100E0BA
:101F300003A0064040A004400E4B70B5064618684A
:101F4000420516D50C498C7801340D46072C88BF04
:101F50000024EA78084BA24202D1FFF781FFF8E79C
:101F600018190121E4B2467119719C70034BBC220F
:101F70001A7070BD348004402200001403A0064093
:101F800000F00F00092801D8303000E03730FFF7AB
:101F9000D3BF174B2DE9F041064618688846410526
:101FA00024D5344606EB08018C421CD2114FBD7873
:101FB000FF780135072D88BF0025AF4209D00D49B4
:101FC00014F8010B4A190123EDB250710B718D7099
:101FD000E8E70949BC200870FFF742FF054AD378BB
:101FE000BB42F9D0EBE7044BBC221A70BDE8F0818C
:101FF000348004402200001403A0064008B5034BBF
:10200000187910B1FFF72CFFF9E708BD2200001482
:10201000034A10785378984238BF0830C01A704786
:1020200022000014084B19785A78914208D0501CAD
:10203000C2B2072A88BF00229918487B5A7070479D
:102040004FF0FF30704700BF22000014054B197895
:102050005A78914202D09818407B70474FF0FF3079
:10206000704700BF22000014094B186840050ED5C8
:10207000084B1A7802F0CB01074A19704020107003
:10208000197841F034001870044B5A781A70704770
:102090003480044003A0064011A006402200001432
:1020A00010B5304B187810F0300F21D072B62E4991
:1020B0000A7832B90F390B782C4B4021197062B66F
:1020C00016E062B62A4C237860782A490C78591CAD
:1020D000C9B2072988BF0021814203D0244B5B1875
:1020E0005C730B46013A12F0FF02EED120480370F8
:1020F000214A107841B20029C2B221DA194B18786E
:1021000001061DD51A498C78CB78A3420FD015480B
:10211000013301781649DBB2072B88BF0023C818AA
:102120001449407908700D3108780728EDD9104915
:10213000CB700C4B1878030602D50F4B7C2119701D
:1021400002F04002D0B258B106490B7803F04002C9
:10215000D0B228B1064B084800213C221971027008
:1021600010BD00BF04A0064016A0064011A0064006
:102170002200001407A0064003A0064038B5451E03
:1021800015F8014F44B10A2C02D10D20FFF7D4FEFF
:102190002046FFF7D1FEF3E738BD10B5044600092D
:1021A000FFF7EEFE2046BDE81040FFF7E9BE10B590
:1021B0000446000AFFF7F1FF2046BDE81040FFF794
:1021C000ECBF10B50446000EFFF7E7FF200CFFF749
:1021D000E4FF200AFFF7E1FF2046BDE81040FFF7CB
:1021E000DCBF00BFF0B516781D785F789B78059C42
:1021F000464301FB0566557892784543504301FB01
:10220000075501FB0301C6F30740020400F1807784
:10221000BF1A360E254A4FEA154C0B0C52F8160021
:1022200027FB10F75FFA8CF000F180762D0E00048A
:10223000301A02EB4506FF09D6F8025220FB15F0D2
:10224000090EDBB202EB4102C60903F180751804E6
:102250002B1AD2F8045423FB15F0B4F90030B4F96A
:102260000210B4F90420FF1802EBD015761807F11C
:10227000800006F1800180F3100381F31002180A38
:10228000110A05F1800383F310026FF4807303FBDE
:102290000077120A000203FB016640EA014003FBDB
:1022A000025327806680A3801043F0BDC80A002037
:1022B0000A4B18680A4B82B0D3F80C16D3F80836CC
:1022C00001904A6E0198596E801A531A984228BF9D
:1022D00018460204B2FBF3F002B0704780090020F8
:1022E000C80A00200278104B33F812104A008032DE
:1022F00082F310014278807803EB420203EB400343
:10230000B2F80222B3F8040452004300803221F0F4
:10231000FF0182F31002120A803383F3100041EAB6
:10232000024343EA10207047C80A002070B51578B0
:102330001C785E789B78454301FB0455547892786D
:102340004443504301FB064401FB0301C5F307432B
:1023500003F180701B04C01A2D0E194B260C0A0CB9
:1023600053F8155020FB15F5240EF0B203EB44048E
:1023700000F180760004301AD4F8024220FB14F4F5
:10238000090ED2B203EB410302F180701204821AEB
:10239000D3F8040422FB10F1EA09E009803280300E
:1023A00082F31003C90980F3100223F0FF03120A1D
:1023B000803181F3100043EA024141EA102070BDF0
:1023C000C80A0020F0B51C4B02784478807833F8B6
:1023D000127003EB440503EB4003B5F80262B3F857
:1023E0000424B1F90040B1F90250B1F9040004EB42
:1023F000470705EB460600EB420507F1800306F1AF
:10240000800083F3100280F31003140A180A05F108
:10241000800282F310031A0A6FF4807303FB0477BF
:10242000240203FB006603FB025344EA00400F80D2
:102430004E808B801043F0BDC80A00202DE9F04F7C
:10244000B1B001210D20CDF840C0FEF79DFFE54859
:1024500001F0FEFF40F24130FFF70EFDE248FFF7CA
:102460008DFEE24BDDF840C01A781A92002A41F046
:10247000FC8672B6DE4B4AF202624BF280401A8052
:10248000188062B6DB49CDF840C001F5C1601191FA
:1024900001F080FF119BD84993F8B427DDF840C0C4
:1024A00002F00300022800F07383032801F0F18298
:1024B0000128129100F04F87FFF7FAFE129BDDF81A
:1024C00040C01A686FF48071414301F18073119923
:1024D0002D9200EB002003F5803201F5F7632B927B
:1024E0002C901B931A981522B0FBF2F102FB1103FA
:1024F00003204343BF48D0F80826D0F80C0652F812
:10250000212050F821E01B992B9800910933D21813
:102510002C99CDF840C07344FFF764FE430860F384
:10252000186B820863F3104B0309C10862F3082B90
:1025300063F3186A420961F3000B62F3104A8109E0
:10254000020AC30961F3082A62F31869410A63F3B6
:10255000000A61F31049830A010BC20A63F30829D8
:1025600061F31868430B62F3000963F31048820BB0
:10257000030CC10B62F3082863F31867420C61F384
:10258000000862F31047810C020DC30C61F30827A9
:1025900062F31866410D63F3000761F31046830D83
:1025A00063F308261A9B15224033B3FBF2F1C00DEA
:1025B00002FB113360F30006032043438D48D0F83B
:1025C0000826D0F80C0652F8212050F821C01B999B
:1025D000093301F5C070D218009063442C992B98F0
:1025E000FFF700FE430860F3596B820863F3514B19
:1025F0000309C10862F3492B63F3596A420961F385
:10260000410B62F3514A8109020AC30961F3492A65
:1026100062F35969410A63F3410A61F35149830A3C
:10262000010BC20A63F3492961F35968430B62F352
:10263000410963F35148820B030CC10B62F3492833
:1026400063F35967420C61F3410862F35147810C0F
:10265000020DC30C61F3492762F35966410D63F320
:10266000410761F35146830D63F349261A9B1522F6
:102670008033B3FBF2F1C00D02FB113360F341066E
:10268000032043435B48D0F80826D0F80C0652F8E4
:10269000212050F821E01B99093301F54070D21830
:1026A000009073442C992B98FFF79CFD430860F32E
:1026B0009A6B8208C10863F3924B030962F38A2B79
:1026C00063F39A6A420961F3820B62F3924A8109C9
:1026D000020AC30961F38A2A62F39A69410A63F321
:1026E000820A61F39249830A010BC20A63F38A29C1
:1026F00061F39A68430B62F3820963F39248820B99
:10270000030CC10B62F38A2863F39A67420C61F3EE
:10271000820862F39247810C020DC30C61F38A2791
:1027200062F39A66410D63F3820761F39246830D6B
:1027300063F38A261A9B1522C033B3FBF2F1C00D56
:1027400002FB113360F38206032043432948D0F88B
:102750000826D0F80C0652F8212050F821C01B9909
:10276000093301F59060D218009063442C992B989E
:10277000FFF738FD430860F3DB6B820863F3D34B4C
:102780000309C10862F3CB2B63F3DB6A4209C30977
:1027900061F3C30B62F3D34A8109020A61F3CB2AC6
:1027A00062F3DB69410A63F3C30A61F3D349830A25
:1027B000010BC20A63F3CB2961F3DB68430B62F3BD
:1027C000C30963F3D348820B030CC10B62F3CB281C
:1027D00063F3DB67420C61F3C30862F3D347810CF8
:1027E0000CE000BF801E0020E0490000340A0020F9
:1027F0000C200540C80A00208C1E0020020DC30CCE
:1028000061F3CB2762F3DB66410D1A9A63F3C307CA
:1028100061F3D346830D63F3CB26C00D02F58073BD
:1028200060F3C3061520B3FBF0F100FB1133D5486C
:1028300003225343D0F80826D0F80C0652F8212082
:1028400050F821E01B99093301F5C060D2180090BF
:1028500073442C992B98FFF7C5FC430860F31C7B4D
:10286000820863F3145B0309C10862F30C3B63F352
:102870001C7A420961F3041B62F3145A8109020AAB
:10288000C30961F30C3A62F31C79410A63F3041A39
:1028900061F31459830A010BC20A63F30C3961F323
:1028A0001C78430B62F3041963F31458820B030C76
:1028B000C10B62F30C3863F31C77420C61F304180C
:1028C00062F31457810C020DC30C61F30C3762F3F1
:1028D0001C76410D1A9A63F3041761F31456830DA5
:1028E00063F30C36C00D02F5A07360F304161520D7
:1028F000B3FBF0F100FB1133A24803225343D0F89D
:102900000826D0F80C0652F8212050F821C01B9957
:10291000093301F5F060D218009063442C992B988C
:10292000FFF760FC430860F35D7B820863F3555B4F
:102930000309C10862F34D3B63F35D7A420961F319
:10294000451B62F3555A8109020AC30961F34D3AE6
:1029500062F35D79410A63F3451A61F35559830ABD
:10296000010BC20A63F34D3961F35D78430B62F3E7
:10297000451963F35558820B030CC10B62F34D38B4
:1029800063F35D77420C61F3451862F35557810C90
:10299000020DC30C61F34D3762F35D76410D1A9A57
:1029A00063F3451761F35556830D63F34D36C00D40
:1029B00002F5C07360F345161520B3FBF0F100FB80
:1029C0001133704803225343D0F80826D0F80C0680
:1029D00052F8212050F821E01B99093301F51060CD
:1029E000D218009073442C992B98FFF7FBFB4308F7
:1029F00060F39E7B820863F3965B0309C10862F370
:102A00008E3B63F39E7A420961F3861B62F3965A0A
:102A10008109020AC30961F38E3A62F39E79410A81
:102A200063F3861A61F39659830A010BC20A63F3B2
:102A30008E3961F39E78430B62F3861963F39658DF
:102A4000820B030CC10B62F38E3863F39E77420C4A
:102A500061F3861862F39657810C020DC30C61F383
:102A60008E3762F39E76410D1A9A63F3861761F3EF
:102A70009656830D63F38E36C00D02F5E07360F356
:102A800086161520B3FBF0F100FB11333D480322FD
:102A9000D0F80CE65343D0F808265EF821C052F86F
:102AA00021201B99093301F52860D2180090634456
:102AB0002C992B98FFF796FB430860F3DF7B820885
:102AC00063F3D75B0309C10862F3CF3B63F3DF7A9B
:102AD000420961F3C71B62F3D75A8109020AC3098D
:102AE00061F3CF3A62F3DF79410A63F3C71A61F306
:102AF000D759830A010BC20A63F3CF3961F3DF7838
:102B0000430B62F3C71963F3D758820B030CC10B55
:102B100062F3CF3863F3DF77420C61F3C71862F3D7
:102B2000D757810C020DC30C61F3CF3762F3DF7608
:102B3000410D63F3C71761F3D756830D2D9A1A9988
:102B4000C2F810A0C00D63F3CF3660F3C7161B9B0D
:102B5000C2F814B0481C82E8C00318322D929A1DA6
:102B600040281A901B92DDF840C07FF4BBAC0648A9
:102B7000CDF840C001F072FD04480268511C0160AC
:102B80006FE400BFC80A0020801E00209C1E0020A9
:102B900003F5F7630A681B93E249D1F80C061A990A
:102BA000199015231A98B1FBF3F103FB110E2C9128
:102BB000032101FB0EF001460931DDF8B0E0199860
:102BC0002B9150F82E10DDF8ACE0129201EB0E00C4
:102BD0001B991193CDF840C0FFF7F4FB420860F356
:102BE0001865830862F31045020963F3082562F350
:102BF0001864430963F310442A9BC1084FEA102C60
:102C00004FEA502E61F300056CF318638109C20985
:102C100061F308246EF310434FEA902162F300043D
:102C200061F308234FEAD02262F3000329992A9323
:102C30004FEA10334FEA503C63F318614FEA903E7D
:102C40006CF310414FEAD0326EF3082162F30001B9
:102C5000299128994FEA10434FEA504C63F31861C9
:102C60004FEA904E6CF310414FEAD0426EF30821C8
:102C700062F30001289127991A9A4FEA10534FEAFC
:102C8000505C63F318614FEA905E6CF31041C00D25
:102C90006EF30821A34B60F300012791D3F80C16C3
:102CA000119818914032B2FBF0F3189900FB132CE5
:102CB000032202FB0CFE51F82300DDF86CC00EF17C
:102CC00009020CF5C0718018FFF77CFB430860F324
:102CD0005965820863F35145030962F3492563F39B
:102CE00059644209C10862F351442A9A4FEA102EEE
:102CF00061F341058109C30961F349246EF3596207
:102D00004FEA502163F3410461F351424FEA9023AB
:102D10004FEAD02C63F349226CF341022A92299A9C
:102D20004FEA103E4FEA50316EF359624FEA90334A
:102D300061F351424FEAD03C63F349226CF3410204
:102D40002992289A4FEA104E4FEA50416EF3596289
:102D50004FEA904361F351424FEAD04C63F349226A
:102D60006CF341022892279A4FEA105E4FEA5051C5
:102D70006EF359624FEA905361F35142C00D63F311
:102D8000492260F34102674927921A9AD1F80C361A
:102D9000119817938032B2FBF0F100FB112C1798B9
:102DA000032202FB0CFE50F82110DDF86CC00EF17E
:102DB0000903C8180CF54071FFF704FB420860F3E3
:102DC0009A65830862F39245020963F38A2562F3E8
:102DD0009A644309C10863F392442A9B4FEA102E78
:102DE00061F382058109C20961F38A246EF39A6353
:102DF0004FEA502162F3820461F392434FEA90223A
:102E00004FEAD02C62F38A236CF382032A93299B26
:102E10004FEA103E4FEA50316EF39A634FEA903218
:102E200061F392434FEAD03C62F38A236CF382034E
:102E30002993289B4FEA104E4FEA50416EF39A6354
:102E40004FEA904261F392434FEAD04C62F38A23F7
:102E50006CF382032893279B4FEA105E4FEA505190
:102E60006EF39A634FEA905261F39243C00D62F39E
:102E70008A2360F3820327932A4B1A9AD3F80C16FD
:102E800011981691C032B2FBF0F3169900FB132C87
:102E9000032202FB0CFE51F82300DDF86CC00EF19A
:102EA00009020CF590618018FFF78CFA430860F373
:102EB000DB65820863F3D345030962F3CB2563F333
:102EC000DB644209C10862F3D3442A9A4FEA102E08
:102ED00061F3C3058109C30961F3CB246EF3DB629F
:102EE0004FEA502163F3C30461F3D3424FEA9023C6
:102EF0004FEAD02C63F3CB226CF3C3022A92299AB7
:102F00004FEA103E4FEA50316EF3DB624FEA9033E6
:102F100061F3D3424FEAD03C63F3CB226CF3C3029C
:102F2000299201E0C80A0020289A4FEA104E4FEA81
:102F300050416EF3DB624FEA904361F3D3424FEAB4
:102F4000D04C63F3CB226CF3C3022892279ADDF8AE
:102F500068C04FEA105E4FEA50516EF3DB624FEAF1
:102F6000905361F3D342E749C00D63F3CB2260F382
:102F7000C302D1F80C36119827920CF58072B2FB7F
:102F8000F0F1159300FB112E1598032202FB0EF3AE
:102F900050F82110DDF86CE003F1090C01EB0C0096
:102FA0000EF5C061FFF70EFA420860F31C75830846
:102FB00062F31455020963F30C3562F31C74430980
:102FC00063F314542A9BC1084FEA102C4FEA502E89
:102FD00061F304156CF31C738109C20961F30C34AD
:102FE0006EF314534FEA902162F3041461F30C332F
:102FF0004FEAD02262F3041329992A934FEA10333F
:103000004FEA503C63F31C714FEA903E6CF314514D
:103010004FEAD0326EF30C3162F3041129912899F2
:103020004FEA10434FEA504C63F31C714FEA904E45
:103030006CF314514FEAD0426EF30C3162F3041179
:10304000289127994FEA10534FEA505C63F31C71A3
:103050004FEA905E6CF31451C00D6EF30C31A94B26
:10306000DDF868C060F3041127911198D3F80C16AD
:103070000CF5A072B2FBF0F3149100FB132E149820
:10308000032202FB0EF150F82330DDF86CE001F171
:10309000090C03EB0C000EF5F061FFF793F9420801
:1030A00060F35D75810862F35555020961F34D3592
:1030B00062F35D74410961F355542A99C3084FEADC
:1030C000102C4FEA502E63F345156CF35D718309A4
:1030D000C20963F34D346EF355514FEA902362F306
:1030E000451463F34D314FEAD02262F345112A9122
:1030F00029994FEA103C4FEA503E6CF35D714FEA5C
:1031000090336EF355514FEAD03263F34D3162F391
:103110004511299128994FEA104C4FEA504E6CF313
:103120005D714FEA90436EF355514FEAD04263F31D
:103130004D3162F34511289127994FEA105C4FEA0F
:10314000505E6CF35D714FEA90536EF35551C00DB4
:1031500063F34D3160F3451127916A49DDF868C08A
:10316000D1F80C36119813930CF5C072B2FBF0F144
:1031700000FB112E1398032202FB0EF350F82110CE
:10318000DDF86CE003F1090C01EB0C000EF51061A9
:10319000FFF718F9420860F39E75830862F39655AD
:1031A000020963F38E3562F39E74430963F3965408
:1031B0002A9BC1084FEA102C4FEA502E61F3861566
:1031C0006CF39E738109C20961F38E346EF39653DA
:1031D0004FEA902162F3861461F38E334FEAD022D6
:1031E00062F3861329992A934FEA10334FEA503C31
:1031F00063F39E714FEA903E6CF396514FEAD032E2
:103200006EF38E3162F38611299128994FEA1043AB
:103210004FEA504C63F39E714FEA904E6CF3965117
:103220004FEAD0426EF38E3162F3861128912799CE
:103230004FEA10534FEA505C63F39E714FEA905E81
:103240006CF39651C00D6EF38E3160F38611DDF88C
:1032500068C027912B4B1199D3F80C060CF5E0723E
:10326000B2FBF1FE032301FB1E225A432B901B9954
:1032700050F82E000932801801F52861FFF7A2F8F6
:10328000420860F3DF75830862F3D7550209C1086D
:1032900063F3CF3562F3DF74430961F3C71563F35A
:1032A000D754810961F3CF342A99DDF840C0C209AF
:1032B000030A62F3C71463F3DF71420A830A62F3FD
:1032C000D75163F3CF31C20A62F3C7112A9129990A
:1032D000030B420B63F3DF7162F3D751830BC20B15
:1032E00063F3CF3162F3C71129912899030C420C83
:1032F00063F3DF7162F3D751830CC20C63F3CF31F8
:1033000002E000BFC80A002062F3C7112891279984
:10331000030D63F3DF71420D62F3D751830D129AEF
:10332000C00D63F3CF3160F3C71111602791289965
:10333000299B51601A9993602A9814614B1C1A9327
:10334000D0601A9B1B985561811D1832402B1B9130
:103350007FF422AC0BE4CDF840C0FEF7A9FF129930
:10336000DDF840C00B686FF48072424302F1807157
:103370002C9300EB002001F580331B932B90DDF89C
:1033800068E01522BEFBF2F102FB11E30320434388
:10339000DB48D0F80826D0F80C0652F8212050F867
:1033A00021E02B991B98CDF840C00933D218734403
:1033B000FEF7BCFF2699430860F31861820863F3A7
:1033C000104162F30821C30863F30001259A269196
:1033D0000109430961F3186263F310428109C309CB
:1033E00061F3082263F3000224992592020A430A3A
:1033F00062F3186163F31041820AC30A62F3082181
:1034000063F30001239A2491010B430B61F31862CB
:1034100063F31042810BC30B61F3082263F30002D4
:1034200022992392020C430C62F3186163F310415A
:10343000820CC30C62F3082163F30001219A2291EC
:10344000010D430D61F3186263F31042810D61F3C6
:103450000822C00D60F3000221921A9A4FF0150C59
:103460004032B2FBFCF10CFB112303204343A44880
:10347000D0F80826D0F80C0652F8212050F821E0A8
:103480002B991B980933D2187344FEF74FFF2699E6
:10349000430860F35961820863F3514162F34921A3
:1034A000C30863F34101259A26910109430961F399
:1034B000596263F351428109C30961F3492263F3FD
:1034C000410224992592020A430A62F3596163F387
:1034D0005141820AC30A62F3492163F34101239AED
:1034E0002491010B430B61F3596263F35142810B49
:1034F000C30B61F3492263F3410222992392020C28
:10350000430C62F3596163F35141820CC30C62F3C3
:10351000492163F34101219A2291010D430D61F389
:10352000596263F35142810D61F34922C00D60F38A
:10353000410221921A9A4FF0150C8032B2FBFCF135
:103540000CFB1123032043436D48D0F80826D0F824
:103550000C0652F8212050F821E02B991B980933D2
:10356000D2187344FEF7E2FE2699430860F39A618D
:10357000820863F3924162F38A21C30863F38201F4
:10358000259A26910109430961F39A6263F39242F5
:10359000810961F38A22C30963F382022499259287
:1035A000020A430A62F39A6163F39241820AC30AF0
:1035B00062F38A2163F38201239A2491010B430B66
:1035C00061F39A6263F39242810BC30B61F38A2227
:1035D00063F3820222992392020C430C62F39A61F4
:1035E00063F39241820CC30C62F38A2163F382017C
:1035F000219A2291010D430D61F39A6263F3924285
:10360000810D61F38A22C00D60F3820221921A9A21
:103610004FF0150CC032B2FBFCF10CFB1123032060
:1036200043433748D0F80826D0F80C0652F821203A
:1036300050F821E02B991B980933D2187344FEF7F8
:1036400075FE2699DDF868C0430860F3DB618208E7
:1036500063F3D34162F3CB21C30863F3C301259A1B
:1036600026910109430961F3DB6263F3D3428109C7
:10367000C30961F3CB2263F3C30224992592020AA2
:10368000430A62F3DB6163F3D341820A62F3CB2125
:10369000C30A63F3C301239A2491010B430B61F323
:1036A000DB6263F3D342810BC30B61F3CB2263F381
:1036B000C30222992392020C430C62F3DB6163F391
:1036C000D341820CC30C62F3CB2163F3C301219A73
:1036D0002291010D430D61F3DB6263F3D342810D4F
:1036E00061F3CB22C00D60F3C302152321920CF5C8
:1036F0008072B2FBF3F103FB11230320434301E08B
:10370000C80A0020DA48D0F80826D0F80C0652F88B
:10371000212050F821E02B991B980933D2187344CB
:10372000FEF704FE2699DDF868C0430860F31C71BB
:10373000820863F3145162F30C31C30863F304117C
:10374000259A26910109430961F31C7263F314520F
:103750008109C30961F30C3263F3041224992592A1
:10376000020A430A62F31C7163F31451820AC30A0A
:1037700062F30C3163F30411239A2491010B430B80
:1037800061F31C7263F31452810BC30B61F30C32AF
:1037900063F3041222992392020C62F31C71430C0E
:1037A000820C63F3145162F30C31C30C63F3041104
:1037B000219A2291010D430D61F31C7263F314529F
:1037C000810D61F30C32C00D60F3041215232192B8
:1037D0000CF5A072B2FBF3F103FB1123032043436A
:1037E000A348D0F80826D0F80C0652F8212050F84B
:1037F00021E02B991B980933D2187344FEF796FDEC
:103800002699DDF868C0430860F35D71820863F3B0
:10381000555162F34D31C30863F34511259A269142
:103820000109430961F35D7263F355528109C309CC
:1038300061F34D3263F3451224992592020A430A3B
:1038400062F35D7163F35551820AC30A62F34D312D
:1038500063F34511239A2491010B430B61F35D72CD
:1038600063F35552810BC30B61F34D3263F3451281
:1038700022992392020C430C62F35D7163F355515C
:10388000820CC30C62F34D3163F34511219A2291EE
:10389000010D61F35D72430D63F35552810D61F3C8
:1038A0004D32C00D60F34512152321920CF5C07204
:1038B000B2FBF3F103FB1123032043436C48D0F820
:1038C0000826D0F80C0652F8212050F821E02B9958
:1038D0001B980933D2187344FEF728FD2699DDF8AA
:1038E00068C0430860F39E71820863F3965162F3E7
:1038F0008E31C30863F38611259A26910109430985
:1039000061F39E7263F396528109C30961F38E32AB
:1039100063F3861224992592020A430A62F39E7188
:1039200063F39651820AC30A62F38E3163F3861100
:10393000239A2491010B430B61F39E7263F3965219
:10394000810BC30B61F38E3263F3861222992392AB
:10395000020C430C62F39E7163F39651820CC30C0C
:1039600062F38E3163F38611219A2291010D430D8A
:1039700061F39E7263F39652810D61F38E32C00D36
:1039800060F38612152321920CF5E072B2FBF3F17D
:1039900003FB1123032043433548D0F80826D0F811
:1039A0000CE652F821205EF821C01B982B990933B0
:1039B000D2186344FEF7BAFC2699DDF840C04308EC
:1039C00060F3DF71820863F3D75162F3CF31C3082C
:1039D00063F3C711259A26910109430961F3DF7248
:1039E00063F3D7528109C30961F3CF3263F3C7127E
:1039F00024992592020A430A62F3DF7163F3D751D7
:103A0000820AC30A62F3CF3163F3C711239A249168
:103A1000010B430B61F3DF7263F3D752810BC30BCE
:103A200061F3CF3263F3C71222992392020C430C45
:103A300062F3DF7163F3D751820CC30C62F3CF31B1
:103A4000219A63F3C711030D63F3DF72430D63F330
:103A5000D752830D63F3CF322C9B2291C00D596056
:103A6000239960F3C7121A6099602192259801E0AA
:103A7000C80A0020249A2699DA601861596118331F
:103A80002C931A9B5A1C402A1A927FF478ACFFF7A9
:103A90006EB80B68E348DDF868E0D0F80C161A98A9
:103AA0001B911522BEFBF2FE02FB1E010320CDF886
:103AB000B0E000FB01FE71460931DDF8B0E01B9873
:103AC0002B9150F82E10DDF8ACE0129201EB0E00B5
:103AD0001193CDF840C0FEF705FC209B4FEA500241
:103AE00060F318634FEA900162F310434FEAD00C81
:103AF00061F308236CF3000320931F9B4FEA101E11
:103B00004FEA50126EF318634FEA901162F31043BC
:103B10004FEAD01C61F308236CF300031F931E9B34
:103B20004FEA102E4FEA50226EF318634FEA9021AD
:103B300062F310434FEAD02C61F308236CF30003C7
:103B40001E931D9B4FEA103E4FEA50326EF31863EE
:103B50004FEA903162F310434FEAD03C61F30823FF
:103B60006CF300031D931C9B4FEA104E4FEA50422A
:103B70006EF318634FEA904162F310434FEAD04C62
:103B800061F308236CF30003DDF840C01C93030DC0
:103B9000420D63F3186C1A9B62F3104C129A810D5C
:103BA0004033C00D61F3082CB3FBF2F102FB113E70
:103BB00060F3000C032000FB0EF31B9850F821105B
:103BC000CDF840C003F109028818FEF78BFB209B5B
:103BD0001F994FEA500C60F359634FEA900E6CF353
:103BE00051434FEAD0026EF3492362F3410320931D
:103BF0004FEA10134FEA501C63F359614FEA901ECD
:103C00006CF351414FEAD0126EF3492162F3410146
:103C10001F911E994FEA10234FEA502C63F359610C
:103C20004FEA902E6CF351414FEAD0226EF34921B6
:103C300062F341011E911D994FEA10334FEA503C47
:103C400063F359614FEA903E6CF351414FEAD03231
:103C50006EF3492162F341011D911C994FEA104313
:103C60004FEA504C63F359614FEA904E6CF3514167
:103C70004FEAD0426EF34921DDF840C0030D62F3F4
:103C800041011C9163F3596C410D820D61F3514C5C
:103C90001A9B62F3492C129A8033B3FBF2F1C00DE8
:103CA00002FB113E60F3410C032000FB0EF31B9856
:103CB00050F82110CDF840C003F109028818FEF732
:103CC00011FB209B1F994FEA500C60F39A634FEA57
:103CD000900E6CF392434FEAD0026EF38A2362F3A4
:103CE000820320934FEA10134FEA501C63F39A614A
:103CF0004FEA901E6CF392414FEAD0126EF38A2184
:103D000062F382011F911E994FEA10234FEA502C53
:103D100063F39A614FEA902E6CF392414FEAD022FE
:103D20006EF38A2162F382011E911D994FEA1033CE
:103D30004FEA503C63F39A614FEA903E6CF3924134
:103D40004FEAD0326EF38A2162F382011D911C99F1
:103D50004FEA10434FEA504C63F39A614FEA904E9A
:103D60006CF392414FEAD042DDF840C06EF38A21F5
:103D7000030D62F382011C9163F39A6C410D820D75
:103D800061F3924C1A9B62F38A2C129AC033B3FBF4
:103D9000F2F1C00D02FB113E60F3820C032000FB28
:103DA0000EF31B9850F82110CDF840C003F1090222
:103DB0008818FEF797FA209B1F994FEA500C60F382
:103DC000DB634FEA900E6CF3D3434FEAD0026EF3FD
:103DD000CB2362F3C30320934FEA10134FEA501C26
:103DE00063F3DB614FEA901E6CF3D3414FEAD012CC
:103DF0006EF3CB2162F3C3011F911E994FEA10238A
:103E00004FEA502C63F3DB614FEA902E6CF3D34101
:103E10004FEAD0226EF3CB2162F3C3011E911D99AC
:103E200002E000BFC80A00204FEA10334FEA503CBE
:103E300063F3DB614FEA903E6CF3D3414FEAD0323B
:103E40006EF3CB2162F3C3011D911C994FEA10431D
:103E50004FEA504C63F3DB614FEA904E6CF3D34171
:103E60004FEAD042DDF840C06EF3CB21030D62F380
:103E7000C3011C9163F3DB6C410D820D1A9B61F34E
:103E8000D34CC00D62F3CB2C129A60F3C30C03F534
:103E90008070B0FBF2F102FB110E032303FB0EF066
:103EA0001B9B53F82110CDF840C000F1090288187F
:103EB000FEF718FA209A1F994FEA500C60F31C7213
:103EC0004FEA900E6CF314524FEAD0036EF30C32AB
:103ED00063F3041220924FEA10124FEA501C62F36F
:103EE0001C714FEA901E6CF314514FEAD0136EF31D
:103EF0000C3163F304111F911E994FEA10224FEA0F
:103F0000502C62F31C714FEA902E6CF314514FEA5F
:103F1000D0236EF30C3163F304111E911D994FEA07
:103F200010324FEA503C62F31C714FEA903E6CF342
:103F300014514FEAD0336EF30C3163F304111D9129
:103F40001C994FEA10424FEA504C62F31C714FEA41
:103F5000904E6CF314514FEAD0436EF30C31DDF800
:103F600040C0020D63F304111C9162F31C7C410DEF
:103F700061F3145C830D1A9AC00D63F30C3C60F37B
:103F8000041C129802F5A073B3FBF0F100FB113E84
:103F90001B98032202FB0EF350F82110CDF840C00D
:103FA00003F1090E01EB0E00FEF79CF9209A1F9910
:103FB0004FEA500360F35D724FEA900C63F3555281
:103FC0004FEAD00E6CF34D326EF3451220924FEA59
:103FD00010124FEA501362F35D714FEA901C63F3C5
:103FE00055514FEAD01E6CF34D316EF345111F91C0
:103FF0001E994FEA10224FEA502362F35D714FEA97
:10400000902C63F355514FEAD02E6CF34D316EF383
:1040100045111E911D994FEA10324FEA503362F359
:104020005D714FEA903C63F355514FEAD03E6CF31B
:104030004D316EF345111D911C994FEA10424FEA24
:10404000504362F35D714FEA904C63F355514FEA70
:10405000D04E6CF34D31DDF840C0020D6EF34511CA
:104060001C9162F35D7C410D830D61F3555CC00DC5
:104070001A9A63F34D3C60F3451C129802F5C07325
:10408000B3FBF0F100FB113E1B98032250F8211006
:10409000CDF840C002FB0EF303F1090E01EB0E0058
:1040A000FEF720F9209A1F994FEA500360F39E72A1
:1040B0004FEA900C63F396524FEAD00E6CF38E32B7
:1040C0006EF3861220924FEA10124FEA501362F3F9
:1040D0009E714FEA901C63F396514FEAD01E6CF329
:1040E0008E316EF386111F911E994FEA10224FEA0E
:1040F000502362F39E714FEA902C63F396514FEA7E
:10410000D02E6CF38E316EF386111E911D994FEAFD
:1041100010324FEA503362F39E714FEA903C63F3E2
:1041200096514FEAD03E6CF38E316EF386111D919D
:104130001C994FEA10424FEA504362F39E714FEAD6
:10414000904C63F396514FEAD04E6CF38E31DDF80C
:1041500040C0020D6EF386111C9162F39E7C410DEE
:10416000830D61F3965CC00D1A9A63F38E3C60F385
:10417000861C129802F5E073B3FBF0F100FB1133DB
:104180001B980322534350F82110CDF840C003F18F
:10419000090E01EB0E00FEF7A5F8209BDDF840C0EC
:1041A000420860F3DF73810862F3D75361F3CF33C2
:1041B000C20862F3C7131F9920930309420963F3EE
:1041C000DF7162F3D7518309C20963F3CF3162F320
:1041D000C7111F911E99030A420A63F3DF7162F34C
:1041E000D751830AC20A63F3CF3162F3C7111E911C
:1041F0001D99030B420B63F3DF7162F3D751830BFD
:10420000C20B63F3CF3162F3C7111D911C99030CEC
:1042100063F3DF71420C62F3D751830CC20C63F37A
:10422000CF31030D62F3C71163F3DF7C420D830DC1
:1042300062F3D75CC00D63F3CF3C119B1C9160F31C
:10424000C71CC3F800C01E9A59601D99DA601F98F8
:104250001A9A996020991861501C596118334028A6
:104260001A907FF417ACFEF782BC0E4C0E482568FE
:104270000E492F952F9C08600A340A4E37682E97F6
:104280002E9B72B6A34208D2094D4AF202614BF24C
:10429000804629802E8062B6EFE706480022027031
:1042A000FEE700BF8009002046436274FC1F002027
:1042B0000C200540082107402DE9F041114D05F57E
:1042C000C16404F10C0804F17407404600F020F8C2
:1042D00004F1DC06384600F01BF8304600F018F810
:1042E00004F5A27000F014F80748084AC5F80886DB
:1042F00040210023C5F80C76C5F81066BDE8F041F2
:1043000000F09AB8C80A0020801E002040E0FF1F7D
:1043100038B505460024FDF74FFD0023C2180133D0
:104320000021402B1172F9D128510434642CF2D1B0
:10433000284638BD084A83681268016882B0019235
:10434000019A5A664268816080E80C00034B186845
:10435000411C196002B0704780090020A01E002097
:1043600010B500231F21B3FBF1F201FB123100EB6A
:1043700082044A000A32D4F844118A5A5108044A85
:1043800022F81310013340F203318B42EAD110BD01
:10439000C80A002038B5044600250120FDF744F97D
:1043A000024690B3017A01F0200501F01F0301F0ED
:1043B000C0014029EDB212D0802920D011BBA168E4
:1043C000182B9CBF51F8230041F82320FDF720FD56
:1043D0000DB90125E1E72046FFF7ACFFF9E7182BFF
:1043E00005D804EB8303D3F84401C3F84421FDF757
:1043F0000FFD002DEDD02046FFF7B2FFE9E7427A2E
:1044000084F8AC21FDF704FDE3E794F8AC0100F07B
:104410000401CAB22AB100F00800C1B2202321B1C0
:1044200001E020230DB1024A00E0024A136038BDCA
:1044300084F00F4088F00F4030B5044C18252180DF
:1044400005FB01216260A160237330BD841E002042
:10445000F8B55B4B198818264E430024B44207D0A8
:10446000574F7D6800202855BB6818550134F5E783
:10447000544EFF20012130600220FCF785FF0E2002
:104480000121FCF781FF07200121FCF77DFF0820B7
:104490000121FCF779FF06200121FCF775FF1420AC
:1044A0000121FCF771FF15200121FCF76DFF0520AC
:1044B0000121FCF769FF424A434B157B434805F055
:1044C0001007F9B200290CBF05461D4629460320F6
:1044D000FCF7E8FE04202946FCF7E4FE3C2103201B
:1044E000FCF76EFF0420B021FCF76AFF384F394A11
:1044F000394D3A6003200221FCF746FF0F200021CE
:10450000FCF742FF3549364B364F196001F5007014
:1045100028603A68344DDFF8F8C042F02001396075
:1045200057F8043C314A43F0020047F8040C304F7E
:104530003048002301212B60EB6017609380D3800B
:104540009160D36010612C489382A2B20280C0F8BF
:1045500002300820ACF80000ACF80220ACF80810DB
:10456000ACF80A30CCF80C10C4F1000C234CC4F8A1
:1045700000C0DFF8A0C0C4F804C023816281E360FA
:1045800020826282676123836383E1611C491D4647
:104590000B604E600B814A81CB601A4B0A21198057
:1045A00019495A80B2220D70B3230A70B1224D709E
:1045B0004B708D708A7015491C340860F8BD00BFBF
:1045C000841E0020C8F00F40801A060000350C0041
:1045D00000A00440000301003490044000010200E8
:1045E00000B0044040800440008000402090004023
:1045F000F2490000C4F00F40369000404C9000405B
:104600006C9000407C9000400110024000E100E00E
:104610003C900040C0F00F4008B5054B03221A70D3
:10462000FCF768FF034908610020087508BD00BF5A
:104630001F800040841E002010B5074C237D43B925
:10464000FCF758FF2169401A31288CBF0020012057
:1046500010BD012010BD00BF841E002008B51B4BFB
:104660001A7D002AFBD19868596858609960184BE8
:104670001860FCF73FFF154A1169401A3128F8D934
:10468000144B196818331B6872B601201075124A52
:1046900010689842FBD910689842FCD8106898427C
:1046A000FCD30C4B0D4801F0E7021A6001220260B6
:1046B00000F5805002600A4A4FF400501060094A29
:1046C0000E201060196062B608BD00BF841E002075
:1046D000409000400090034004900340A0A004409C
:1046E000A09004400C8000404008FE4340A00440DD
:1046F0004408FE4344A004400018FE4300C00440A8
:104700003000FE43309004403400FE4334900440B7
:104710001C18FE431CC004401018FE4310C0044087
:104720000818FE4308C004400C18FE430CC00440A7
:104730000C10FE430CB004401010FE4310B00440B7
:104740001810FE4318B004401C10FE431CB0044077
:104750001410FE4314B004400418FE4304C0044087
:104760000010FE4300B004400008FE4300A00440D7
:104770000408FE4304A004400C08FE430CA00440BF
:104780000808FE4308A004401418FE4314C0044067
:104790001818FE4318C004400410FE4304B004403F
:1047A0000810FE4308B004401400FE431490044077
:1047B0004C08FE434CA004400420FE4304D00440B7
:1047C0002410FE4324B004402010FE4320B00440D7
:1047D0002810FE4328B004402C10FE432CB00440A7
:1047E0000020FE4300D004404808FE4348A0044097
:1047F0001000FE431090044019000000000100006A
:104800003A49000012000000000200004C4900007C
:104810002B000000000300007849000000000000A9
:10482000010300007C4900000000000002030000BA
:104830008E49000000000000030300000000001487
:104840000000000004030000A24900000000000076
:10485000EE030000CC490000000000000000000052
:1048600000000000000000009200000000010500B0
:10487000010088000000070000002A0044006500D5
:10488000760069006300650049006E0074006500F1
:104890007200660061006300650047005500490032
:1048A000440073000000500000007B00360032001E
:1048B0006600640034003100320033002D003800FF
:1048C0003700650033002D003400370066006500B6
:1048D0002D0039003400360061002D0065003000E5
:1048E0003400340066003300360066003200660093
:1048F000620033007D000000000040000000000165
:1049000004000200000000000000000157494E555D
:104910005342000000000000000000000000000002
:104920000000010157494E555342000000000000AD
:104930000000000000000000000012010002000062
:104940000040501D7A6006010102030109022B009C
:1049500002010080320904000001FF000000070589
:1049600001024000000904010000FE0101040921C8
:104970000D10270004010100040309041203730051
:10498000630061006E006C0069006D006500140337
:104990004600610064006500630061006E00640011
:1049A00079002A034600610064006500630061002D
:1049B0006E0064007900200042006F006F007400F8
:1049C0006C006F00610064006500720012034D000E
:1049D0005300460054003100300030007E000000DB
:1049E0004661646563616E64792076312E30360DE0
:0849F0000A00FFFFB9420000BC
:0400000300001000E9
:00000001FF
