:10000000FC1F0020F900000003E2FF1F03E2FF1FB6
:1000100003E2FF1F03E2FF1F03E2FF1F01E2FF1FD6
:1000200001E2FF1F01E2FF1F01E2FF1F03E2FF1FCA
:1000300003E2FF1F01E2FF1F03E2FF1F03E2FF1FB6
:1000400003E2FF1F03E2FF1F03E2FF1F03E2FF1FA4
:1000500003E2FF1F03E2FF1F03E2FF1F03E2FF1F94
:1000600003E2FF1F03E2FF1F03E2FF1F03E2FF1F84
:1000700003E2FF1F03E2FF1F03E2FF1F03E2FF1F74
:1000800009E7FF1F03E2FF1F03E2FF1F03E2FF1F59
:1000900003E2FF1F03E2FF1F03E2FF1F03E2FF1F54
:1000A00003E2FF1F03E2FF1F03E2FF1F03E2FF1F44
:1000B00003E2FF1F03E2FF1F03E2FF1F03E2FF1F34
:1000C00003E2FF1F03E2FF1F03E2FF1F45E2FF1FE2
:1000D00003E2FF1F03E2FF1F03E2FF1F03E2FF1F14
:1000E00003E2FF1F03E2FF1F03E2FF1F03E2FF1F04
:1000F00003E2FF1F03E2FF1F434B4CF220524DF679
:1001000028101A80188000BF00BFD32123F80E1CCE
:10011000002207204FF4A6411A8123F80A0C3B4A1B
:1001200023F8081C3A483B4B3B491A6058600A7850
:1001300002F00803D8B218B10A7842F008030B7035
:100140003648374B0A2101702422A0211A7003F887
:10015000011C3448027802F00203D9B20029F8D019
:100160003048027802F01003D9B20029F8D12D48A6
:10017000027802F00C03082BF9D12B48032140220E
:10018000017000234270294A29499818884204D2F4
:100190002849585898500433F5E72748274B984288
:1001A0004FF0000302D240F8043BF7E72448254A09
:1001B000195899500433B3F5807FF7D12248026073
:1001C000184A117801F02003D8B20028F8D0154A57
:1001D000117801F04003D8B20028F8D01B4A1C491E
:1001E0001C4B0A60202018700E4A117801F00C0098
:1001F0000C28F9D1184B194902221A60443B1960A6
:1002000062B600F0E9B800BF0E200540823F04004E
:100210000100002B3880044002D007400050064007
:1002200001400640064006400440064000E2FF1F31
:10023000D4ECFF1F1004000000F0FF1F30F5FF1F7B
:100240000000000000F0FF1F08ED00E000000311B7
:10025000448004400040064048800440C01005002F
:10026000184B1A6842F48061174A19600023137012
:100270001649174A0B7013701649174A0B70137002
:10028000164B40F213314FF4517219605A60144BFF
:10029000C0F34431C0F34712197000F01F005A70C8
:1002A000104A98720221042313705174D3740E4BB8
:1002B000882018700D483C224FF4803103F80D2C33
:1002C000016070473480044022F5FF1FA1F4FF1F36
:1002D00024F5FF1F23F5FF1FA0F4FF1F40A00440DB
:1002E00000A0064002A0064010A0064000E100E089
:1002F000114B19684B051ED5104A137801333F2B5B
:1003000088BF00230E490A789A4209D172B60D4A75
:100310004AF2026111804BF28041118062B6F1E72E
:1003200009490A4AC854012010700449084ADBB23E
:10033000BC200B70107070473480044024F5FF1F00
:1003400023F5FF1F0C200540A2F4FF1FA0F4FF1FA0
:1003500003A0064038B545180446AC4204D014F852
:10036000010BFFF7C5FFF8E738BD074B187848B118
:1003700072B606494AF202624BF280430A800B8051
:1003800062B6F2E7704700BFA0F4FF1F0C200540E3
:1003900008B50B4B1868420511D5FFF7E6FF094970
:1003A00009484FF480320A600849002340F20312E2
:1003B00003700A6006484A60064A0370137008BD5D
:1003C0003480044080E100E003A0064040A00440E7
:1003D00022F5FF1FA1F4FF1F01B40248844601BCAF
:1003E000604700BF15E8FF1FFFFFFFFFFFFFFFFF94
:1003F000FFFFFFFFFFFFFFFFFFFFFFFFFFFFFFFF0D
:10040000FFFFFFFFFFFFFFFFFEFFFFFFFEFFFF40BD
:10041000FEE7FEE7F0B50C4B0C4C1A7842F00205F3
:1004200004EBC50682F00102706009481A70067874
:10043000002E0CBF8827C82747EA014186F0010635
:1004400044F835100670F0BD48F4FF1F00E0FF1FB0
:100450009FF4FF1F2DE9F743924A137803F004013C
:10046000C8B208B10421117003F00802D2B2002A08
:1004700000F090818C4D2D782B0940F08781AD08DC
:100480008A4C54F8351004EBC507C1F383000928E2
:100490007F6800F058810D2803D0012840F0738157
:1004A0001CE1796882483A6841608249026044F8F8
:1004B0003510814C8149236001240C7092B280492F
:1004C000B2F5A06F0B8068D021D840F221139A4278
:1004D00000F08B800CD8822A3FD0B2F5817F4ED0BD
:1004E000802A40F0AE80774C002626706670ABE024
:1004F00040F2A1339A4200F0888080339A4200F0A3
:100500008B8040F20230824240F09B8047E040F214
:1005100081618A420BD8B2F5D06F4ED240F2A1531E
:100520009A427FD080339A4240F08B8082E0B2F5CD
:10053000106F0FD008D8B2F5086F40F08280624C7F
:100540002678604C267073E0A2F5FD43403B012BFA
:1005500077D845E081785C4D1EE080885B4B08B120
:100560000F210FE1574C0026267066701B7803F0B0
:100570000202D5B2002D67D00121217064E04C4801
:10058000828851065DD14388002B5AD14F4C95008B
:100590002D19297821F0020129701C465BE044499D
:1005A0008A8850064DD14B88002B4AD1474E940083
:1005B000A519287840F00201EEE74288444B53F831
:1005C000084CA3F10C01002C3BD00C3333F8180C71
:1005D0009042F4D1150A032D0CBF23780B893AE021
:1005E000334A918804292CD130E0818849BBC188E5
:1005F00049B9408800910A460B4600F0D5FA10B977
:10060000324E0F2434700023C7E78088C8B92D48C4
:1006100000F02EFBE8B914E0254B9A888AB900F067
:1006200091FB0CE0818861B900F0B8FA254C20708C
:10063000012310E01E4A908818B900F099FB0028A9
:10064000E1D10F21214B9DE0022304E02823214C1E
:1006500001E01C4C06231648C688B34238BF1E462C
:10066000402E34BF3546402520462946FFF7D2FEAE
:10067000761B2C4404D1402D40F08580354603E0A4
:10068000402E34BF3546402520462946FFF7C2FE9E
:10069000761B2C4401D1402D75D1074B0E4A1C60AE
:1006A000168070E0802007409020074000E0FF1F88
:1006B0008CF4FF1F8000400000F4FF1F9FF4FF1F19
:1006C00004F4FF1F96F4FF1F9EF4FF1FC020074095
:1006D000D4EBFF1F6EECFF1F94F4FF1F4C4B1988E7
:1006E00040F2211291422AD198884A4A18B11188C1
:1006F000DB88994220D8464E1288F188708800978E
:10070000C2EB0109B9F1400F28BF4FF040094B4639
:10071000DFF8008100F048FA70B1B8F80000F28804
:1007200081441FFA89F94A45A8F8009007D83A4849
:100730000021FFF76FFE02E0384B0F211970384897
:1007400044F835001FE0374D2D6895B1364E378897
:10075000402F34BF3C46402428462146FFF75AFE2E
:10076000391B88B2308008B9402C00D128192D4B94
:10077000186027490A88B2F5A06F04D1002048709C
:100780002A4B897819702A4801220270294B0821C6
:10079000197061E6D9071FD52549274B2048022447
:1007A0000C701A70254B264C1860986025481A6109
:1007B000D8609A615C60194B0D2018702248FF23A5
:1007C000037000F8083C0274204A1370204B9F20ED
:1007D000012218700A7018E01A0605D50F4A0D207C
:1007E0008021107002F8401C03F00200C2B22AB14E
:1007F000154801780222017000F8082C03F010035C
:10080000D8B210B10B4A10211170BDE8FE8300BFB1
:100810008CF4FF1F04F4FF1F96F4FF1FC020074055
:100820008000400000F4FF1F94F4FF1F9820074051
:10083000942007408020074048F4FF1F00E0FF1F7E
:1008400008F4FF1F4CF4FF1F882007408C2007404E
:1008500084200740174B1A6842F480201860164B1A
:10086000802119701878144A0006FBD4134B1449E0
:10087000C3F307200870C3F3074008751B0EFF2061
:100880000B7601F81C0C01F8140C01F88C0C117893
:10089000012041F040030021137002F8780C094B4D
:1008A00002F80C1C084902F8880C082210201A6073
:1008B00008707047348004400C21074000E0FF1F9F
:1008C0009C20074004E100E008210740044B054953
:1008D00018780A78904238BF4030801A704700BFBD
:1008E00022F5FF1FA1F4FF1F084B1978084B1A7857
:1008F000914208D0501CC2B23F2A88BF002205494D
:10090000885C1A7070474FF0FF30704722F5FF1F68
:10091000A1F4FF1FE2F4FF1F10B5304B187810F060
:10092000300F21D072B62E490A7832B90F390B78C0
:100930002C4B4021197062B616E062B62A4C2B4847
:10094000237800782A490C78591CC9B23F2988BFFE
:100950000021814202D0274B5C540B46013A12F031
:10096000FF02EFD120480370234A107841B20029DA
:10097000C2B221DA194B187803061DD51F4C204945
:1009800024780B78A3420ED001331448DBB20178EF
:100990001C493F2B88BF0023C85C154908700D31E6
:1009A00008780728EED916490B700C4B187800060A
:1009B00002D5114B7C21197002F04002D0B258B11F
:1009C00006490B7803F04002D0B228B10E4B0A481A
:1009D00000213C221970027010BD00BF04A0064027
:1009E00016A0064011A0064022F5FF1FA1F4FF1F2C
:1009F00007A00640E2F4FF1F03A0064024F5FF1FF6
:100A000023F5FF1FA2F4FF1FA0F4FF1F72B6044BD3
:100A10004AF202624BF280401A80188062B6704738
:100A20000C20054038B542F2107000F0ADF90721F6
:100A30002E4800F0B1F90A2000F0BEF900F0C4F928
:100A40000024FFF743FF40B1FFF74EFF274BE15C67
:100A5000884202D10134072CF3D100F0A5F9072C0C
:100A60000BD0234C6068A0F58052B2F5F83F04D259
:100A7000204D21492B688B4227D1204A204C202031
:100A80004FF4A2752560106042F8140C00F06EF867
:100A9000FFF7E0FE00F082F8072802D0FFF7B6FF6C
:100AA000F8E7144B002119600B2416482025056037
:100AB000154DFFF7ABFF013DFBD1013CF5D1FFF731
:100AC000A5FF72B6114A1470FEE772B610480460B2
:100AD000FFF79CFF00222A60206861684FF0FF3317
:100AE0009E4685460847002038BD00BFC4ECFF1F66
:100AF00000100000FC1F00204643627494F00F4079
:100B000014B004408CF00F40A0860100082107407B
:100B100008ED00E0030610B520D510F0400407D022
:100B20000F48104B0A220E2102701970002213E0A8
:100B300010F0300208D00A4A0A4B0A2111700A4903
:100B4000082018700C7009E010F0010007D0044B69
:100B50000A2018700348017003480270012010BD7C
:100B6000CCECFF1F2DF5FF1F2CF5FF1F094B1A784A
:100B70001106FBD508488121FF22017000F8012CE5
:100B80007021802019701870024B1A781206FBD55C
:100B9000704700BF0000024007000240014B187878
:100BA000704700BFCCECFF1FF0B59C18B4F5806F08
:100BB000059E01D88C4204D9264B0A2119700822BF
:100BC00020E0254DAA1800259D4203D0775D57559A
:100BD0000135F9E78C423BD11E4B1A78022A05D029
:100BE000052A03D00A2018700F220BE01B49194A6E
:100BF0000B7813F0800F02D0194E337833B10A21ED
:100C000011700E22174802700020F0BD24B915485B
:100C10000623137004701BE08402134804F580540B
:100C2000046001251148357009260670C4F3074693
:100C3000240AE4B200F8016C00F8024C00F8033C0E
:100C4000702008708020087003211170054A13700D
:100C50000120F0BDCCECFF1F00000014000002409A
:100C60002CF5FF1F2DF5FF1F28F5FF1F0700024081
:100C70002C4AF8B51378032B044642D3042B08D929
:100C8000062B3ED107201070274A4FF47A7111606D
:100C900037E0264D264E2F783078012F02D0022FD4
:100CA00024D11EE00421FFF735FFF8B92149224A7B
:100CB00002232B700B680B211170C3F3074102F85C
:100CC000011CC3F30721DBB202F8021C02F8033C4B
:100CD0001A4A8021177002F8010C702030703170B0
:100CE00004E00721FFF716FF00B928700D4B1A78B2
:100CF0000A2A06D00D48017809B9052200E004222D
:100D00001A700F4B084918780B68064920701A0AA8
:100D1000180C63700B78A2700022E070237162716E
:100D20000120F8BDCCECFF1FD0ECFF1F2CF5FF1FFE
:100D30000000024028F5FF1F070002400B000240A0
:100D40002DF5FF1F084B09481A780A2A05D10222FF
:100D5000002101701A70012070470A2119700F23B9
:100D600003700020704700BFCCECFF1F2DF5FF1F64
:100D7000034B04490020022208701A7001207047BA
:100D8000CCECFF1F2DF5FF1F01B40248844601BCC7
:100D9000604700BF6102000001B40248844601BC04
:100DA000604700BF5503000001B40248844601BCFF
:100DB000604700BF9103000001B40248844601BCB3
:100DC000604700BFF102000001B40248844601BC44
:100DD000604700BF6B030000000100001CECFF1F18
:100DE000120000000002000040ECFF1F1B0000008A
:100DF00000030000C0ECFF1F000000000103000022
:100E00002EECFF1F000000000203000096ECFF1F05
:100E100000000000EE0300005CECFF1F000000007B
:100E200000000000000000000000000012010002AD
:100E300000000040501D8260010101020001120308
:100E40007300630061006E006C0069006D00650056
:100E500009021B0001010280320904000000FE01AA
:100E6000020209210D1027000401010012034D00A8
:100E70005300460054003100300030007E0028004E
:100E8000000000010400010000000000000000015B
:100E900057494E555342000000000000000000007A
:100EA0000000000000002A034600610064006500A5
:100EB000630061006E0064007900200042006F0052
:100EC0006F0074006C006F006100640065007200C8
:100ED0000403090446432D426F6F740002000000B2
:040EE000010000000D
:10100000FC1F00200D110000FB100000FB10000071
:10101000FB100000FB100000FB100000F9100000A6
:10102000F9100000F9100000F9100000FB1000009A
:10103000FB100000F9100000FB100000FD10000084
:10104000FB100000FB100000FB100000214400001A
:10105000FB100000FB100000FB100000FB10000064
:10106000FB100000FB100000FB100000FB10000054
:10107000FB100000FB100000FB100000FB10000044
:10108000591E0000FB100000FB100000FB100000C8
:10109000FB100000FB100000FB100000FB10000024
:1010A000FB100000FB100000FB100000FB10000014
:1010B000FB100000FB100000FB100000FB10000004
:1010C000FB100000FB100000FB100000B516000034
:1010D000FB100000FB100000FB100000FB100000E4
:1010E000FB100000FB100000FB100000FB100000D4
:1010F000FB100000FB100000FEE7FEE7024B1A6841
:10110000501C1860704700BFE007002010B5002396
:10111000204A21499818884204D2204958589850AA
:101120000433F5E71E481F4CA04203D2002440F8C8
:10113000044BF8E71C4B4BF67F3207201A6043F84C
:10114000040C1A4C21780A06FBD5194A8123137026
:10115000FF207021802302F8010C21702370134CB2
:1011600022781306FBD513491348814203D200228B
:1011700041F8042BF8E762B600F064F80F4C104910
:101180008C4203D054F8043B9847F8E701F03AF852
:10119000FEE700BFE0070020E00700200048000055
:1011A000E0070020EC1C002014E000E000000240FA
:1011B000070002400000001400080014FC47000073
:1011C00000480000014B1868704700BF00D0034082
:1011D000044B054900221A600A60044A106010207E
:1011E0001860704714D0034004D0034000D003407F
:1011F00000280EDB02024FF48073B2F5004F06D3D5
:10120000013B012BC0EB020101D00A46F5E7100AB1
:1012100010E0404202024FF48073B2F5014F06D352
:10122000013B012BC0EB020101D00A46F5E7110A90
:10123000C1F58070013B024940EA03200860704715
:101240000CD00340104B114A00204BF6FF7110B533
:1012500018600F4C596028231360936013619361E9
:10126000136293621363936309222260094C206026
:101270000948016009490B608B60094B1A60BDE8A1
:10128000104000F031BC00BF048003400C800340DC
:101290000080034004900340089003400C900340FA
:1012A0000090034010B500234FF4377242FA03F266
:1012B000914202D80133072BF6D1164A42FA03F2C3
:1012C00002EB5102B2FBF1F101394FF6FF7291428C
:1012D00028BF1146C21E012A06D80F4A0F4C002013
:1012E000106020600E480FE0421F012A06D909282D
:1012F00004D00A2802D01438032809D8094A0A4C15
:10130000002010602060094843F00803016013606A
:1013100010BD00BF006CDC0200900340049003404D
:10132000089003400080034004800340088003408D
:10133000212810B518D80D4A52F8303093F8804261
:101340003CB1012011B183F8800010BD83F8000189
:1013500010BD02EBC00043681A6811B142F00301EE
:1013600001E022F00201196010BD00BFF04400004E
:10137000212805D8034B53F8300090F8000270473D
:1013800000207047F0440000212816D80B4A02EBD9
:10139000C00301295B6852F8302004D182F8801222
:1013A0004FF4A27108E0002082F8800211B94FF4D6
:1013B000807101E040F2031119607047F0440000B1
:1013C000002910B5044601DC00215EE0FF2901D9A7
:1013D00001215AE0C21ED3B2012B94BF2F4B304BD8
:1013E0001868431C4B431B0A142A49D8DFE802F053
:1013F0000B11171D48482329484848484848484881
:10140000482F353B410027484FF45172036026486E
:1014100034E0264A264813604FF451722EE02549E5
:1014200025480B6040F2444228E0244840F2444200
:101430000360234822E0234A2348136040F24442D9
:101440001CE0224922480B6040F2444216E0214849
:1014500040F244420360204810E0204A20481360D4
:1014600040F244420AE01F491F480B6040F24442E8
:1014700004E01E491E480B6040F24442026010BD69
:101480007F292046D4BF00210121FFF751FF2046CC
:101490000121BDE81040FFF777BF00BF089003406F
:1014A000088003401090034030900440189003409F
:1014B00034900440488003401CC004403080034006
:1014C00010C00440208003400CB00440288003403A
:1014D00010B004403880034014C0044040800340F2
:1014E00018C004401080034004B00440188003403A
:1014F00008B0044072B60B4B0B480C491A680368DD
:10150000086862B6410102D5322A88BF0133C2F5AC
:101510003B427F323021B2FBF1F24FF47A7000FB94
:101520000320704718E000E0E007002004ED00E031
:1015300038B50446FFF7DEFF054654B1FFF7DAFF82
:10154000401BB0F57A7FF9D3013C02D005F57A75DE
:10155000F4E738BD1FB5174B1749222203205870F6
:101560001A700C68154B03941A68154802920168AA
:10157000144C019123680093134B00221DF80200C4
:101580001249434001324B43102AF7D100221DF883
:1015900002400E4807496340434301EB42001A21D1
:1015A000B3FBF1F401FB143101324131102A4180C7
:1015B000EDD11FBD00000014548004405880044049
:1015C0005C80044060800440C59D1C819301000143
:1015D00070B5134C94F8802004F14005002A08BF30
:1015E000254600238B4203D0C65CEE540133F9E755
:1015F00094F8811000290CBF8820C82040EA0343DA
:1016000042F00205074840F83530054B81F00101F2
:1016100082F0010283F8811083F8802070BD00BF42
:10162000E407002000E0FF1F70B50446124E56F894
:10163000343006EBC005190C686814D020F8041D7E
:1016400000F0D8FD58B972B60C49012091F88230EB
:1016500000FA04F41C4381F8824062B670BD00F0C9
:1016600099FA04306860064B064A15F0080F08BF67
:10167000134646F8343070BD00E0FF1FE407002039
:10168000C80040008800400038B572B6084B0025FD
:1016900093F8824083F8825062B63CB1E30702D5EA
:1016A0002846FFF7C1FF01356408F6E738BD00BFE3
:1016B000E4070020F8B5B74A137803F00401C8B274
:1016C00008B10421117003F00802D2B2002A00F020
:1016D000B481B148027811090B46002940F0A2817B
:1016E0009008AE4D55F8302005EBC006C2F38302DA
:1016F000092A766800F06C810D2A06D0012A40F094
:101700008D81A74945F8301088E1A64C326876688B
:10171000C4F88C20C4F89060A14EC4F8941045F829
:101720003060012084F8810092B200F56870824236
:1017300000F0D4801AD8B2F5817F00F0828007D8FB
:10174000802A60D0822A63D0212A40F0EE80E3E034
:10175000B2F5E07FC0F0E980B2F5E17FC0F0A8808B
:1017600040F202339A4240F0E0807BE040F2816038
:1017700082420DD8B2F5D06F80F08780B2F5A06FAD
:1017800000F0D78040F2A1539A4240F0CE80B9E0F9
:10179000B2F5106F12D00AD8B2F5086F40F0C580CC
:1017A000804C94F89860012304F8836FC8E0A2F598
:1017B000FD42403A012A00F2B88083E094F88E009E
:1017C00084F898002C6A200603D5686A083800F06F
:1017D00007FA754D754A2E7806F00803D9B21670CF
:1017E00061B100F0D7F96D4C714D04306062256233
:1017F00000F0D0F96A4A061DE662A262674900233A
:101800000B638B6395E084F8831084F8841092E076
:10181000644CB4F89000012800F28780654A860085
:101820000025B31884F8835084F88450197801F0A7
:101830000200C5B2002D7ED0012604F8836F02237A
:101840007EE0B4F8900000F07F02012A6DDCB4F86D
:101850008E30002B69D1574D84006619317821F004
:10186000020210E04F48B0F8902002F07F010129F9
:101870005BDCB0F88E30002B57D14E4D94006619CA
:10188000307840F00202327053E0B4F88E204A4BB8
:1018900053F8084CA3F10C01002C46D00C3333F85C
:1018A000180C9042F4D1150A032D15D00B8947E08E
:1018B0003C4BB3F8901011B1012936D13EE004231E
:1018C0003E4C3DE0374BB3F89010042901D13C4C1D
:1018D00002E0052929D13B4C237831E0B4F890305F
:1018E000012B22D194F8990084F8843084F8831075
:1018F00084F8851084F8861084F8870084F88810AE
:10190000062319E0274CB4F89030012B0DD194F840
:10191000996004F8836F13E0224BB3F8901001290B
:1019200003D183F89910002303E0224B0F21197093
:101930002DE01C4604E00223833401E0224C042302
:10194000184DB5F89260B34238BF1E46402E34BFE2
:101950003546402520462946FFF73AFE761B2C44A3
:1019600003D1402D13D1354603E0402E34BF354618
:10197000402520462946FFF72BFE761B2C4401D13B
:10198000402D04D1074AC2F89440A2F89A6001227F
:101990000E4B42E0802007409020074000E0FF1FF0
:1019A000C8004000E407002000460000C4200740B3
:1019B00088004000C020074010460000E41C0020C2
:1019C0000247000070460000E81C002094200740F9
:1019D0003B4ED6F89450A5B1B6F89A70402F34BF5C
:1019E0003C46402428462146FFF7F2FD381B81B2D1
:1019F000A6F89A1009B9402C00D12919304AC2F82A
:101A000094102F4BB3F88C00B0F5A06F06D10021D5
:101A100083F88D1093F88E202A4B1A702A490120E2
:101A2000087006E002F00803D8B210B99008FFF77A
:101A3000FBFD264B08221A703DE6D90725D5224822
:101A4000234B1F4902240470224C59611C609C6086
:101A500081F8802001F19C0501F1DC0440311A611C
:101A60009A61D9615D60DC601B4B0D2119701B49C7
:101A7000FF230B7001F8083C0A74194A1370194BC4
:101A80009F21012219700270F8BD1A0605D5124A6D
:101A90000D208021107002F8401C03F00200C2B239
:101AA0002AB10E4801780222017000F8082C03F0D8
:101AB0001003D8B210B1054A10211170F8BD00BF53
:101AC000E40700209820074094200740802007402A
:101AD00000E0FF1F88004000C0200740882007402A
:101AE0008C2007408420074008B500F049F8FFF734
:101AF00031FD1D4B1D4800221A609A601A619A61DF
:101B00001A6201685A60DA605A61DA615A6241F415
:101B1000802202601648802101700178144A09066B
:101B2000FBD41449C3F307200870C3F307400875BA
:101B30001B0EFF200B7601F81C0C01F8140C01F8A9
:101B40008C0C1178012041F040030021137002F841
:101B5000780C094B02F80C1C084902F8880C082282
:101B600010201A60087008BD00E0FF1F3480044098
:101B70000C2107409C20074004E100E008210740B9
:101B8000034B4FF0FF321A605A609A60DA60704778
:101B90000009002010B572B600230F4A52F8231036
:101BA00011B90133042BF8D1B1FA81F000EB4312E3
:101BB000672A00D9FEE702F01F004FF0004424FA24
:101BC00000F021EA0001044840F8231062B6034BFC
:101BD000442101FB023010BD0009002040ECFF1F32
:101BE0000B4B4422C01AB0FBF2F167290ED84A0908
:101BF00072B6084B01F01F004FF0004121FA00F0CF
:101C000053F82210084343F8220062B6704700BF21
:101C100040ECFF1F0009002072B6044B4AF202623A
:101C20004BF280401A80188062B670470C20054045
:101C3000164B1A6842F480611960154B00221A7025
:101C40005A709A70DA701A71124B40F213314FF4D5
:101C5000517219605A60104BC0F34431C0F34712FF
:101C6000197000F01F005A700C4A98720221042368
:101C700013705174D3740A4B8820187009483C22A1
:101C80004FF4803103F80D2C01607047348004401C
:101C90002200001440A0044000A0064002A006401C
:101CA00010A0064000E100E008B50C4B18684305A1
:101CB00000D408BD0A4A137913B1FFF7ADFFF9E765
:101CC00008494FF48030086007480370074840F225
:101CD0000311016041601370537008BD34800440EB
:101CE0002200001480E100E003A0064040A0044070
:101CF0000E4B70B506461868420516D50C498C780F
:101D000001340D46072C88BF0024EA78084BA24214
:101D100002D1FFF781FFF8E718190121E4B24671FB
:101D200019719C70034BBC221A7070BD3480044042
:101D30002200001403A0064000F00F00092801D87B
:101D4000303000E03730FFF7D3BF174B2DE9F041BB
:101D5000064618688846410524D5344606EB080136
:101D60008C421CD2114FBD78FF780135072D88BFFA
:101D70000025AF4209D00D4914F8010B4A1901237F
:101D8000EDB250710B718D70E8E70949BC20087005
:101D9000FFF742FF054AD378BB42F9D0EBE7044B8B
:101DA000BC221A70BDE8F081348004402200001487
:101DB00003A0064008B5034B187910B1FFF72CFFBC
:101DC000F9E708BD22000014034A107853789842BE
:101DD00038BF0830C01A704722000014084B197829
:101DE0005A78914208D0501CC2B2072A88BF0022FC
:101DF0009918487B5A7070474FF0FF30704700BF0A
:101E000022000014054B19785A78914202D0981894
:101E1000407B70474FF0FF30704700BF2200001436
:101E2000094B186840050ED5084B1A7802F0CB0113
:101E3000074A197040201070197841F0340018706A
:101E4000044B5A781A7070473480044003A006404F
:101E500011A006402200001410B5304B187810F085
:101E6000300F21D072B62E490A7832B90F390B786B
:101E70002C4B4021197062B616E062B62A4C2378CA
:101E800060782A490C78591CC9B2072988BF0021FB
:101E9000814203D0244B5B185C730B46013A12F06D
:101EA000FF02EED120480370214A107841B2002988
:101EB000C2B221DA194B187801061DD51A498C785F
:101EC000CB78A3420FD01548013301781649DBB215
:101ED000072B88BF0023C8181449407908700D31BA
:101EE00008780728EDD91049CB700C4B18780306F9
:101EF00002D50F4B7C21197002F04002D0B258B1CC
:101F000006490B7803F04002D0B228B1064B0848CE
:101F100000213C221971027010BD00BF04A00640D0
:101F200016A0064011A006402200001407A006409B
:101F300003A0064038B5451E15F8014F44B10A2CE0
:101F400002D10D20FFF7D4FE2046FFF7D1FEF3E7C4
:101F500038BD10B504460009FFF7EEFE2046BDE887
:101F60001040FFF7E9BE10B50446000AFFF7F1FF85
:101F70002046BDE81040FFF7ECBF10B50446000E48
:101F8000FFF7E7FF200CFFF7E4FF200AFFF7E1FF70
:101F90002046BDE81040FFF7DCBF00BFF0B5167863
:101FA0001D785F789B78059C464301FB0566557854
:101FB00092784543504301FB075501FB0301C6F3EB
:101FC0000740020400F18077BF1A360E254A4FEA17
:101FD000154C0B0C52F8160027FB10F75FFA8CF02B
:101FE00000F180762D0E0004301A02EB4506FF0941
:101FF000D6F8025220FB15F0090EDBB202EB4102CB
:10200000C60903F1807518042B1AD2F8045423FB77
:1020100015F0B4F90030B4F90210B4F90420FF1837
:1020200002EBD015761807F1800006F1800180F3ED
:10203000100381F31002180A110A05F1800383F3DB
:1020400010026FF4807303FB0077120A000203FB97
:10205000016640EA014003FB025327806680A380AB
:102060001043F0BD100900200A4B18680A4B82B0DB
:10207000D3F80C16D3F8083601904A6E0198596EC1
:10208000801A531A984228BF18460204B2FBF3F094
:1020900002B07047E0070020100900200278104BC2
:1020A00033F812104A00803282F3100142788078AF
:1020B00003EB420203EB4003B2F80222B3F804043C
:1020C00052004300803221F0FF0182F31002120A15
:1020D000803383F3100041EA024343EA1020704743
:1020E0001009002070B515781C785E789B78454300
:1020F00001FB0455547892784443504301FB064455
:1021000001FB0301C5F3074303F180701B04C01AF0
:102110002D0E194B260C0A0C53F8155020FB15F503
:10212000240EF0B203EB440400F180760004301A70
:10213000D4F8024220FB14F4090ED2B203EB41039F
:1021400002F180701204821AD3F8040422FB10F109
:10215000EA09E0098032803082F31003C90980F374
:10216000100223F0FF03120A803181F3100043EACA
:10217000024141EA102070BD10090020F0B51C4B4F
:1021800002784478807833F8127003EB440503EB4F
:102190004003B5F80262B3F80424B1F90040B1F984
:1021A0000250B1F9040004EB470705EB460600EBCB
:1021B000420507F1800306F1800083F3100280F3EB
:1021C0001003140A180A05F1800282F310031A0A98
:1021D0006FF4807303FB0477240203FB006603FBA8
:1021E000025344EA00400F804E808B801043F0BDC4
:1021F00010090020014608B5014801F085FF08BD1F
:10220000180F00202DE9F04FABB001210D20CDF8C3
:1022100040C0FFF7B9F8E64802F01EF840F241303E
:10222000FFF706FDE348FFF785FEE34BDDF840C00E
:102230001A78002A41F0038772B6E04B4AF2026036
:102240004BF280411880198062B6DD4BDD4993F86E
:10225000B40700F00300022800F08C83032801F08B
:10226000078301281391129200F052871193CDF841
:1022700040C0FFF7F9FE139ADDF840C013686FF411
:102280008071414301F180722793119902F58033E7
:102290002693129B00EB002001F5F7622590159222
:1022A000149314981522B0FBF2F102FB11030320E2
:1022B0004343C348D0F80826D0F80C0652F8212032
:1022C00050F821101598CDF840C00133D218CB1822
:1022D00004320433009025992698FFF75FFE4208E8
:1022E00060F3186B810862F3104B0209C30861F3B5
:1022F000082B62F3186A410963F3000B61F3104A7B
:102300008309010AC20963F3082A61F31869430AC1
:1023100062F3000A63F31049820A030BC10A62F3F5
:10232000082963F31868420B61F3000962F310484F
:10233000810B020CC30B61F3082862F31867410C90
:1023400063F3000861F31047830C010D63F3082762
:1023500061F31866430DC20C63F31046149B62F3DD
:102360000007820D403362F308261522B3FBF2F119
:10237000C00D02FB113360F3000603204343904875
:10238000D0F80826D0F80C0652F8212050F8211079
:1023900015980133D218CB1800F5C07104320433FC
:1023A000009126982599FFF7F9FD420860F3596BD3
:1023B000830862F3514B0209C10863F3492B62F3AE
:1023C000596A430961F3410B63F3514A8109030AD6
:1023D000C20961F3492A63F35969410A62F3410A68
:1023E00061F35149820A010BC30A62F3492961F37F
:1023F0005968420B63F3410962F35148830B020CA5
:10240000C10B63F3492862F35967430C61F3410838
:1024100063F35147810C030DC20C61F3492763F349
:102420005966410D149B62F3410761F35146820DD9
:10243000803362F349261522B3FBF2F1C00D02FB93
:10244000113360F34106032043435D48D0F808266A
:10245000D0F80C0652F8212050F8211015980133BD
:10246000D218CB1800F5407104320091043325993D
:102470002698FFF793FD420860F39A6B830862F396
:10248000924B0209C10863F38A2B62F39A6A4309EB
:1024900061F3820B63F3924A8109030AC20961F373
:1024A0008A2A63F39A69410A62F3820A61F39249C4
:1024B000820A010BC30A62F38A2961F39A68420B0C
:1024C00063F3820962F39248830B020CC10B63F33E
:1024D0008A2862F39A67430C61F3820863F3924798
:1024E000810C030DC20C61F38A2763F39A66410DD8
:1024F000149B62F3820761F39246820DC03362F34C
:102500008A261522B3FBF2F1C00D02FB113360F3F2
:102510008206032043432A48D0F80826D0F80C0648
:1025200052F8212050F8211015980133D218CB18F9
:1025300000F5906100910432259926980433FFF745
:102540002DFD420860F3DB6B830862F3D34B020975
:10255000C10863F3CB2B62F3DB6A430961F3C30B5E
:1025600063F3D34A8109030AC20961F3CB2A63F3F7
:10257000DB69410A62F3C30A61F3D349820A010BA2
:10258000C30A62F3CB2961F3DB68420B63F3C3092F
:1025900062F3D348830B020CC10B63F3CB2862F3C5
:1025A000DB67430C61F3C30863F3D347810C0BE093
:1025B000C81C0020E84700007D0800200C200540D2
:1025C00010090020D41C0020030DC20C61F3CB279E
:1025D00063F3DB66410D149B62F3C30761F3D346DB
:1025E000820D62F3CB26C00D152260F3C30603F5FE
:1025F0008070B0FBF2F102FB110303204343D94882
:10260000D0F80826D0F80C0652F8212050F82110F6
:1026100015980133D218CB1800F5C0610432043389
:10262000009126982599FFF7B9FC420860F31C7BBE
:10263000830862F3145BC108020963F30C3B62F385
:102640001C7A430961F3041B63F3145A8109030ADA
:10265000C20961F30C3A63F31C79410A62F3041A6C
:1026600061F31459820A010BC30A62F30C3961F356
:102670001C78420B63F3041962F31458830B020CA9
:10268000C10B63F30C3862F31C77430C61F304183D
:1026900063F31457810C030DC20C61F30C3763F321
:1026A0001C76410D149B62F3041761F31456820DDE
:1026B00062F30C36C00D152260F3041603F5A0700A
:1026C000B0FBF2F102FB110303204343A548D0F80D
:1026D0000826D0F80C0652F8212050F82110159841
:1026E0000133D218CB1800F5F061043204330091A5
:1026F00026982599FFF752FC420860F35D7B83081A
:1027000062F3555B0209C10863F34D3B62F35D7AE6
:10271000430961F3451B63F3555A8109030AC20952
:1027200061F34D3A63F35D79410A62F3451A61F34F
:102730005559820A010BC30A62F34D3961F35D7882
:10274000420B63F3451962F35558830B020CC10B1E
:1027500063F34D3862F35D77430C61F3451863F31F
:102760005557810C030DC20C61F34D3763F35D7651
:10277000410D149B62F3451761F35556820D62F3C8
:102780004D36C00D152260F3451603F5C070B0FB41
:10279000F2F102FB1103032043437248D0F80826EC
:1027A000D0F80C0652F8212050F82110159801336A
:1027B000D218CB1800F5106104320433009126982A
:1027C0002599FFF7EBFB420860F39E7B830862F3D9
:1027D000965B0209C10863F38E3B62F39E7A43095C
:1027E00061F3861B63F3965A8109030AC20961F3F8
:1027F0008E3A63F39E79410A62F3861A61F3965921
:10280000820A010BC30A62F38E3961F39E78420B90
:1028100063F3861962F39658830B020CC10B63F3C2
:102820008E3862F39E77430C61F3861863F39657F4
:10283000810C030DC20C61F38E3763F39E76410D5C
:10284000149B62F3861761F39656820D62F38E36FF
:10285000C00D152260F3861603F5E070B0FBF2F1AF
:1028600002FB1103032043433E48D0F80826D0F86A
:102870000CE652F8212015985EF821100133D21889
:10288000CB1800F52861043204330091269825996D
:10289000FFF784FB420860F3DF7B830862F3D75BBA
:1028A0000209C10863F3CF3B62F3DF7A430961F3A6
:1028B000C71B63F3D75A8109030AC20961F3CF3AF0
:1028C00063F3DF79410AC30A62F3C71A61F3D75988
:1028D000820A010B62F3CF3961F3DF78420B63F3B5
:1028E000C71962F3D758830B020CC10B63F3CF38BF
:1028F00062F3DF77430C61F3C71863F3D757810C9A
:10290000030DC20C61F3CF3763F3DF76410D62F341
:10291000C71761F3D756820D279B1499C3F810A0EF
:10292000C00D62F3CF3660F3C7161598C3F814B024
:102930004A1C83E8C00318332793831D402A14924E
:102940001593DDF840C07FF4ACAC0748CDF840C02B
:1029500001F088FD054801F043FC054801684B1C67
:10296000036062E410090020C81C0020180F00203A
:10297000E41C00200968149203F5F763269115936F
:10298000DDF850E0E54A1523BEFBF3F103FB11E04F
:102990002590D2F80C06DDF894E050F82110129240
:1029A000032000FB0E11481D15991193CDF840C06E
:1029B000FFF7E4FB420860F31865830862F31045F3
:1029C000020963F3082562F31864430963F31044B2
:1029D000249BC1084FEA102C4FEA502E61F30005EA
:1029E0006CF318638109C20961F308246EF3104384
:1029F0004FEA902162F3000461F308234FEAD022EA
:102A000062F30003239924934FEA10334FEA503CBA
:102A100063F318614FEA903E6CF310414FEAD032F5
:102A20006EF3082162F30001239122994FEA1043CB
:102A30004FEA504C63F318614FEA904E6CF310412B
:102A40004FEAD0426EF3082162F3000122912199EE
:102A5000129A4FEA10534FEA505C63F318614FEA41
:102A6000905E6CF31041C00D6EF3082160F300011D
:102A70001498119B21914030B0FBF3F103FB11003E
:102A8000D2F80C26259052F82130DDF894C0DDF8FC
:102A900054E0032101FB0C3005300EF5C071FFF747
:102AA0006DFB430860F35965810863F351450309E1
:102AB00061F3492563F35964410961F35144249951
:102AC000C2084FEA102C4FEA502E62F341056CF316
:102AD00059618209C30962F349246EF351414FEAF7
:102AE000902263F3410462F349214FEAD02363F358
:102AF0004101249123994FEA103C4FEA503E6CF378
:102B000059614FEA90326EF351414FEAD03362F38C
:102B1000492163F34101239122994FEA104C4FEA76
:102B2000504E6CF359614FEA90426EF351414FEAB7
:102B3000D04362F3492163F3410122912199119B12
:102B40004FEA105C4FEA505E6CF359614FEA9052C5
:102B50006EF35141C00D62F3492160F341011498B5
:102B6000129A21918030B0FBF3F103FB1100D2F8EF
:102B70000C26259052F82130DDF894C0DDF854E0A1
:102B8000032101FB0C3005300EF54071FFF7F6FA1A
:102B9000430860F39A65810863F39245030961F382
:102BA0008A2563F39A64410961F392442499C20827
:102BB0004FEA102C4FEA502E62F382056CF39A61B3
:102BC000820962F38A24C3094FEA90226EF392418C
:102BD00063F3820462F38A214FEAD02363F3820114
:102BE000249123994FEA103C4FEA503E6CF39A61CE
:102BF0004FEA90326EF392414FEAD03362F38A216A
:102C000063F38201239122994FEA104C4FEA504E10
:102C10006CF39A614FEA90426EF392414FEAD043CF
:102C200062F38A2163F3820122912199119B4FEA79
:102C3000105C4FEA505E6CF39A614FEA90526EF36B
:102C40009241C00D62F38A2160F382011498129AB6
:102C50002191C030B0FBF3F103FB1100D2F80C2638
:102C6000259052F82130DDF894C0DDF854E00321BE
:102C700001FB0C3005300EF59061FFF77FFA430839
:102C800060F3DB65810863F3D345030961F3CB256A
:102C900063F3DB64410961F3D3442499C2084FEA2A
:102CA000102C4FEA502E62F3C3056CF3DB618209EE
:102CB000C30962F3CB246EF3D3414FEA902263F34E
:102CC000C30462F3CB214FEAD02363F3C301249101
:102CD00023994FEA103C4FEA503E6CF3DB614FEA18
:102CE00090326EF3D3414FEAD03362F3CB2163F3DA
:102CF000C301239122994FEA104C4FEA504E6CF3D6
:102D0000DB614FEA90426EF3D3414FEAD04362F366
:102D1000CB2163F3C3012291219901E01009002026
:102D2000119B4FEA105C4FEA505E6CF3DB614FEA97
:102D30009052DDF850C06EF3D341C00D62F3CB2149
:102D400060F3C301129A21910CF58070B0FBF3F18E
:102D500003FB1100D2F80C26259052F82130DDF843
:102D600094E0DDF854C0032101FB0E3005300CF572
:102D7000C061FFF703FA430860F31C75810863F331
:102D80001455030961F30C3563F31C744109C2083F
:102D900061F3145424994FEA102E62F3041582094A
:102DA000C30962F30C346EF31C714FEA502263F3D3
:102DB000041462F314514FEA90234FEAD02C63F3CA
:102DC0000C316CF30411249123994FEA103E4FEA21
:102DD00050326EF31C714FEA903362F314514FEA94
:102DE000D03C63F30C316CF30411239122994FEA28
:102DF000104E4FEA50426EF31C714FEA904362F35B
:102E000014514FEAD04C63F30C316CF3041122914E
:102E10002199DDF850C04FEA105E4FEA50526EF330
:102E20001C714FEA905362F31451C00D63F30C31DF
:102E3000119B129A60F304110CF5A0702191B0FB64
:102E4000F3F103FB1100D2F80C26259052F8213043
:102E5000DDF894E0DDF854C0032101FB0E300530AD
:102E60000CF5F061FFF78AF9430860F35D7581089E
:102E700063F355550309C20861F34D3563F35D747F
:102E8000410961F3555424994FEA102E62F3451518
:102E90008209C30962F34D346EF35D714FEA50222B
:102EA00063F3451462F355514FEA90234FEAD02C57
:102EB00063F34D316CF34511249123994FEA103E91
:102EC0004FEA50326EF35D714FEA903362F3555121
:102ED0004FEAD03C63F34D316CF3451123912299B5
:102EE0004FEA104E4FEA50426EF35D714FEA904345
:102EF00062F355514FEAD04C63F34D316CF34511F9
:102F000022912199DDF850C04FEA105E4FEA5052ED
:102F10006EF35D714FEA905362F35551C00D63F348
:102F20004D31119B129A60F345110CF5C07021913F
:102F3000B0FBF3F103FB1100D2F80C26259052F8F8
:102F40002130DDF894E0DDF854C0032101FB0E30A0
:102F500005300CF51061FFF711F9430860F39E7519
:102F6000810863F39655030961F38E3563F39E740C
:102F70004109C20861F3965424994FEA102E62F376
:102F800086158209C30962F38E346EF39E714FEA8F
:102F9000502263F3861462F396514FEA90234FEA6E
:102FA000D02C63F38E316CF38611249123994FEA70
:102FB000103E4FEA50326EF39E714FEA903362F347
:102FC00096514FEAD03C63F38E316CF38611239116
:102FD00022994FEA104E4FEA50426EF39E714FEA2B
:102FE000904362F396514FEAD04C63F38E316CF309
:102FF000861122912199DDF850C04FEA105E4FEA08
:1030000050526EF39E714FEA905362F39651C00D89
:1030100063F38E3160F38611129A119B21910CF5A6
:10302000E071D2F80C06B1FBF3F203FB121350F877
:103030002200032101FB0302159B501D03F52861AB
:10304000FFF79CF8410860F3DF75820861F3D755FC
:103050000109C30862F3CF3561F3DF74420963F3FA
:10306000C71562F3D7548309C10963F3CF3461F301
:10307000C7142499DDF840C0020A430A62F3DF71E5
:1030800063F3D751820AC30A62F3CF3163F3C711E6
:10309000239A2491010B430B61F3DF7263F3D75240
:1030A000810BC30B61F3CF3263F3C71222992392D2
:1030B000020C62F3DF71430C820C63F3D75162F3AD
:1030C000CF31C30C219A63F3C711030D63F3DF7291
:1030D000430D63F3D752830D63F3CF32C00D269BAC
:1030E000229160F3C7121A60596021922399249AA1
:1030F0009960DA6014981C615D6118332693159B02
:10310000411C9A1D4029149115927FF439AC1CE49E
:10311000CDF840C0FEF7A8FF1399DDF840C00A685B
:103120006FF48073434303F18071129B259200EB8F
:10313000002001F58032159226901493DDF850E0BE
:103140001522BEFBF2F102FB11E003235843431C9E
:10315000DE48D0F80826D0F80C0652F8212050F8A6
:1031600021101598CDF840C0D218CB180432043382
:103170002699FEF7B7FF209A410860F3186283088A
:1031800061F3104263F30822C10861F30002209248
:103190001F9A0309410963F3186261F3104283091E
:1031A000C10963F3082261F300021E991F92020A0B
:1031B000430A62F3186163F31041820AC30A62F39F
:1031C000082163F300011D9A1E91010B430B61F36B
:1031D000186263F31042810BC30B61F3082263F39F
:1031E00000021C991D92020C430C62F3186163F3F8
:1031F0001041820CC30C62F3082163F300011B9A97
:103200001C91010D430D61F3186263F31042810DAF
:1032100061F30822C00D60F300021B92149A4FF074
:10322000150C4032B2FBFCF10CFB1123032043438D
:10323000A648D0F80826D0F80C0652F8212050F8FD
:10324000211015980133D218CB1804320433269973
:10325000FEF748FF209A410860F35962830861F342
:10326000514263F34922C10861F3410220921F9A3F
:103270000309410963F3596261F351428309C109AA
:1032800063F3492261F341021E991F92020A430A25
:1032900062F3596163F35141820AC30A62F349211F
:1032A00063F341011D9A1E91010B430B61F35962B7
:1032B00063F35142810BC30B61F3492263F3410273
:1032C0001C991D92020C430C62F3596163F3514146
:1032D000820CC30C62F3492163F341011B9A1C91D8
:1032E000010D430D61F3596263F35142810D61F3A6
:1032F0004922C00D60F341021B92149A4FF0150E43
:103300008032B2FBFEF10EFB1123032043436F48D2
:10331000D0F80826D0F80C0652F8212050F82110D9
:1033200015980133D218CB18043226990433FEF7CE
:10333000D9FE209A410860F39A62830861F39242B1
:1033400063F38A22C10861F3820220921F9A030963
:10335000410963F39A6261F392428309C10963F3FD
:103360008A2261F382021E991F92020A430A62F3C3
:103370009A6163F39241820AC30A62F38A2163F37A
:1033800082011D9A1E91010B430B61F39A6263F354
:103390009242810BC30B61F38A2263F382021C9970
:1033A0001D92020C430C62F39A6163F39241820C0A
:1033B000C30C62F38A2163F382011B9A1C91010DF5
:1033C000430D61F39A6263F39242810D61F38A22A5
:1033D000C00D60F382021B92149A4FF0150CC0329C
:1033E000B2FBFCF10CFB1123032043433748D0F818
:1033F0000826D0F80C0652F8212050F82110159814
:103400000133D218CB18043204332699FEF76AFE32
:10341000209ADDF850E0410860F3DB62830861F335
:10342000D34263F3CB22C10861F3C30220921F9AF7
:103430000309410963F3DB6261F3D3428309C109E4
:1034400063F3CB2261F3C3021E991F92020A430A5F
:1034500062F3DB6163F3D341820AC30A62F3CB21D7
:1034600063F3C3011D9A1E91010B430B61F3DB62F1
:1034700063F3D342810BC30B61F3CB2263F3C3022B
:103480001C991D92020C430C62F3DB6163F3D34180
:10349000820CC30C62F3CB2163F3C3011B9A1C9112
:1034A000010D430D61F3DB6263F3D342810D61F3E0
:1034B000CB22C00D60F3C30215231B920EF5807260
:1034C000B2FBF3F103FB1120032201E010090020FD
:1034D0005043431CDD48D0F80826D0F80C0652F8BB
:1034E000212050F821101598D218CB18043204333B
:1034F0002699FEF7F7FD209ADDF850C0410860F3E9
:103500001C72830861F3145263F30C32C10861F337
:10351000041220921F9A0309410963F31C7261F39C
:103520001452830963F30C32C10961F304121E992A
:103530001F92020A430A62F31C7163F31451820A58
:10354000C30A62F30C3163F304111D9A1E91010B3F
:10355000430B61F31C7263F31452810BC30B61F3D1
:103560000C3263F304121C991D92020C430C62F39B
:103570001C7163F31451820CC30C62F30C3163F3BE
:1035800004111B9A1C91010D430D61F31C7263F32E
:103590001452810D61F30C32C00D60F30412152337
:1035A0001B920CF5A072B2FBF3F103FB1120032276
:1035B0005043431CA548D0F80826D0F80C0652F812
:1035C000212050F821101598D218CB18043204335A
:1035D0002699FEF787FD209ADDF850E0410860F358
:1035E0005D72830861F3555263F34D32C10861F394
:1035F000451220921F9A0309410963F35D7261F33A
:1036000055528309C10963F34D3261F345121E9986
:103610001F92020A62F35D71430A63F35551820AF5
:10362000C30A62F34D3163F345111D9A1E91010BDC
:10363000430B61F35D7263F35552810BC30B61F36E
:103640004D3263F345121C991D92020C430C62F338
:103650005D7163F35551820CC30C62F34D3163F31A
:1036600045111B9A1C91010D430D61F35D7263F3CB
:103670005552810D61F34D32C00D60F34512152393
:103680001B920EF5C072B2FBF3F103FB1120032273
:103690005043431C6D48D0F80826D0F80C0652F869
:1036A000212050F821101598D218CB180432043379
:1036B0002699FEF717FD209ADDF850C0410860F307
:1036C0009E72830861F3965263F38E32C10861F3F0
:1036D000861220921F9A0309410963F39E7261F3D7
:1036E00096528309C10963F38E3261F386121E99E3
:1036F0001F92020A430A62F39E7163F39651820A93
:10370000C30A62F38E3163F386111D9A1E91010B79
:1037100061F39E72430B810B63F3965261F38E3219
:10372000C30B63F386121C991D92020C430C62F3C7
:103730009E7163F39651820CC30C62F38E3163F376
:1037400086111B9A1C91010D430D61F39E7263F368
:103750009652810D61F38E32C00D60F386121523EF
:103760001B920CF5E072B2FBF3F103FB1120032274
:103770005043431C3548D0F80826D0F80CE652F8E0
:1037800021205EF821101598D218CB18043204338A
:103790002699FEF7A7FC209ADDF840C0410860F3A7
:1037A000DF72830861F3D75263F3CF32C10861F34C
:1037B000C71220921F9A0309410963F3DF7261F374
:1037C000D7528309C10963F3CF3261F3C7121E993F
:1037D0001F92020A430A62F3DF7163F3D751820A30
:1037E000C30A62F3CF3163F3C7111D9A1E91010B17
:1037F000430B61F3DF7263F3D752810B61F3CF3276
:10380000C30B63F3C7121C991D92020C430C62F3A5
:10381000DF7163F3D751820CC30C62F3CF311B9A73
:1038200063F3C711030D63F3DF72430D63F3D752E4
:10383000830D63F3CF32259B1C91C00D59601D99F8
:1038400060F3C7121A6099601B9201E01009002012
:103850001F981E9A2099DA601861596118332593D0
:10386000149B5A1C402A14927FF468ACFFF76DB881
:103870000B681492E248DDF850E0D0F80C161522DF
:103880001591BEFBF2F102FB11E025901598DDF8D1
:1038900094E050F821101292032000FB0E11481DF5
:1038A0001193CDF840C0FEF7F9FB1A9B19994FEA26
:1038B000500260F318634FEA900C62F310434FEA32
:1038C000D00E6CF308236EF300031A934FEA101323
:1038D0004FEA501263F318614FEA901C62F31041F3
:1038E0004FEAD01E6CF308216EF30001199118996C
:1038F0004FEA10234FEA502263F318614FEA902CED
:1039000062F310414FEAD02E6CF308216EF30001F0
:10391000189117994FEA10334FEA503263F3186148
:103920004FEA903C62F310414FEAD03E6CF308211D
:103930006EF30001179116994FEA10434FEA504277
:1039400063F318614FEA904C62F310414FEAD04E96
:103950006CF30821DDF840C0030D6EF300011691F1
:1039600063F3186C410D820D61F3104C149B62F3EC
:10397000082C129A4033B3FBF2F1C00D60F3000C37
:1039800002FB1130159B259053F82120DDF894E0BF
:10399000CDF840C0032101FB0E200530FEF77EFB71
:1039A0001A9A4FEA500C60F359624FEA900E6CF38A
:1039B00051424FEAD0016EF3492261F341021A925B
:1039C000199A4FEA10134FEA501C63F359624FEAF9
:1039D000901E6CF351424FEAD0116EF3492261F30D
:1039E00041021992189A4FEA10234FEA502C63F3C0
:1039F00059624FEA902E6CF351424FEAD0216EF398
:103A0000492261F341021892179A4FEA10334FEAA4
:103A1000503C63F359624FEA903E6CF351424FEAD7
:103A2000D0316EF3492261F341021792169A4FEAA0
:103A300010434FEA504C63F359624FEA904E6CF3D7
:103A400051424FEAD0416EF34922DDF840C0030DE8
:103A500061F34102169263F3596C420D149B62F3B9
:103A6000514C129A810D8033C00D61F3492CB3FB88
:103A7000F2F160F3410C02FB1130159B259053F8D5
:103A80002120DDF894E0CDF840C0032101FB0E2099
:103A90000530FEF703FB1A9A4FEA500C60F39A6266
:103AA0004FEA900E6CF392424FEAD0016EF38A22F5
:103AB00061F382021A92199A4FEA10134FEA501CCE
:103AC00063F39A624FEA901E6CF392424FEAD01170
:103AD0006EF38A2261F382021992189A4FEA102338
:103AE0004FEA502C63F39A624FEA902E6CF39242A5
:103AF0004FEAD0216EF38A2261F382021892179A5C
:103B00004FEA10334FEA503C63F39A624FEA903E1B
:103B10006CF392424FEAD0316EF38A2261F3820253
:103B20001792169A4FEA10434FEA504C63F39A6289
:103B30004FEA904E6CF392424FEAD041DDF840C01C
:103B40006EF38A22030D61F38202169263F39A6C7C
:103B5000420D149B62F3924C129A810DC033C00D3A
:103B600061F38A2CB3FBF2F160F3820C02FB11309B
:103B7000159B259053F82120DDF894E0CDF840C046
:103B8000032101FB0E200530FEF788FA1A9A4FEA4E
:103B9000500C60F3DB624FEA900E6CF3D3424FEAB5
:103BA000D0016EF3CB2261F3C3021A92199A4FEA45
:103BB00010134FEA501C63F3DB624FEA901E6CF364
:103BC000D3424FEAD0116EF3CB2261F3C3021992B4
:103BD000189A4FEA10234FEA502C63F3DB624FEA46
:103BE000902E6CF3D3424FEAD0216EF3CB2261F3D7
:103BF000C3021892179A4FEA10334FEA503C01E083
:103C00001009002063F3DB624FEA903E6CF3D3426D
:103C10004FEAD0316EF3CB2261F3C3021792169AAA
:103C20004FEA10434FEA504C63F3DB624FEA904E89
:103C30006CF3D3424FEAD041DDF840C06EF3CB22A3
:103C4000030D61F3C302169263F3DB6C420D810D29
:103C5000149B62F3D34CC00D129A61F3CB2C60F32A
:103C6000C30C03F58070B0FBF2F102FB1103159851
:103C7000259350F82120DDF894E0CDF840C00321D1
:103C800001FB0E23581DFEF709FA1A9A4FEA500C51
:103C900060F31C724FEA900E6CF314524FEAD0019D
:103CA0006EF30C3261F304121A92199A4FEA101350
:103CB0004FEA501C63F31C724FEA901E6CF31452CF
:103CC0004FEAD0116EF30C3261F304121992189A74
:103CD0004FEA10234FEA502C63F31C724FEA902EE8
:103CE0006CF314524FEAD0216EF30C3261F30412DC
:103CF0001892179A4FEA10334FEA503C63F31C7244
:103D00004FEA903E6CF314524FEAD0316EF30C320E
:103D100061F304121792169A4FEA10434FEA504C7F
:103D200063F31C724FEA904E6CF314524FEAD04189
:103D30006EF30C3261F304121692DDF840C0030DED
:103D4000420D63F31C7C810D149B62F3145CC00D67
:103D5000129A61F30C3C60F3041C03F5A070B0FBF5
:103D6000F2F102FB11031598259350F82120DDF89C
:103D700094E0CDF840C0032101FB0E23581DFEF74F
:103D80008DF91A9A4FEA500C60F35D724FEA900E6B
:103D90006CF355524FEAD0016EF34D3261F3451288
:103DA0001A92199A4FEA10134FEA501C63F35D728E
:103DB0004FEA901E6CF355524FEAD0116EF34D321C
:103DC00061F345121992189A4FEA10234FEA502CCA
:103DD00063F35D724FEA902E6CF355524FEAD02197
:103DE0006EF34D3261F345121892179A4FEA103371
:103DF0004FEA503C63F35D724FEA903E6CF35552CC
:103E00004FEAD0316EF34D3261F345121792169A94
:103E10004FEA10434FEA504C63F35D724FEA904E05
:103E20006CF355524FEAD041DDF840C06EF34D328D
:103E3000030D61F34512169263F35D7C420D810D13
:103E4000149B62F3555CC00D129A61F34D3C60F314
:103E5000451C03F5C070B0FBF2F102FB110315988D
:103E6000259350F82120DDF894E0CDF840C00321DF
:103E700001FB0E23581DFEF711F91A9A4FEA500C58
:103E800060F39E724FEA900E6CF396524FEAD001A7
:103E90006EF38E3261F386121A92199A4FEA10135A
:103EA0004FEA501C63F39E724FEA901E6CF39652D9
:103EB0004FEAD0116EF38E3261F386121992189A7E
:103EC0004FEA10234FEA502C63F39E724FEA902E74
:103ED0006CF396524FEAD0216EF38E3261F3861264
:103EE0001892179A4FEA10334FEA503C63F39E72D0
:103EF0004FEA903E6CF396524FEAD0316EF38E3219
:103F000061F386121792169A4FEA10434FEA504C0B
:103F100063F39E724FEA904E6CF396524FEAD04193
:103F20006EF38E32DDF840C0030D61F386121692F7
:103F300063F39E7C420D810D149B62F3965CC00D71
:103F4000129A61F38E3C60F3861C03F5E070B0FBBF
:103F5000F2F102FB1103159850F82120CDF840C072
:103F60004FF0030E0EFB0321481DFEF797F81A9B36
:103F7000DDF840C0420860F3DF73810862F3D75375
:103F800061F3CF33C20862F3C71319991A93030977
:103F9000420963F3DF7162F3D7518309C20963F306
:103FA000CF3162F3C71119911899030A420A63F3DA
:103FB000DF7162F3D751830AC20A63F3CF3162F330
:103FC000C71118911799030B63F3DF71420B830B31
:103FD00062F3D75163F3CF31C20B62F3C71117916C
:103FE0001699030C420C63F3DF7162F3D751830C13
:103FF000C20C63F3CF31030D62F3C71163F3DF7CAF
:10400000420D830D62F3D75C63F3CF3C119B189A8A
:104010005960C00D16911799DA6060F3C71C149AA5
:10402000199899601A991861501CC3F800C0596119
:104030001833402814907FF41DACFEF786BC0E4C5C
:104040000E4825680E492995299C08600A340A4EB5
:1040500037682897289B72B6A34208D2094D4AF2C6
:1040600002614BF2804629802E8062B6EFE7064857
:1040700000220270FEE700BFE007002046436274A2
:10408000FC1F00200C200540082107402DE9F041CD
:10409000114D05F5C16404F10C0804F174074046A4
:1040A00000F020F804F1DC06384600F01BF830463A
:1040B00000F018F804F5A27000F014F80748084A58
:1040C000C5F8088640210023C5F80C76C5F81066AF
:1040D000BDE8F04100F0B4B810090020C81C002071
:1040E00040E0FF1F38B505460024FDF753FD0023CF
:1040F000C21801330021402B1171F9D12851043429
:10410000642CF2D1284638BD38B50446087900F051
:10411000200500F01F0300F0C0004028EDB214D0CD
:10412000802822D020BB94F8AE213ABBA268182B7D
:104130009ABF52F8230042F823100846FDF750FDBD
:10414000CDB1012184F8AE1115E0182B97BF04EB17
:1041500083030846D3F84401C3F84411FDF740FD3A
:104160004DB1012384F8AF3105E0487984F8AC0102
:104170000846FDF735FD012084F8AD0138BD094A38
:1041800083681268016882B00192019A5A66426897
:10419000816080E80C00044B1868411C196002B073
:1041A000704700BFE0070020E81C002010B5002386
:1041B0001F21B3FBF1F200EB820401FB1231D4F8B2
:1041C000444104EB4102D188044A490822F8131003
:1041D000013340F203318B42EAD110BD10090020B7
:1041E00038B590F8AC3103F004020446D0B218B1EF
:1041F00003F00805E9B201E094F8AD11202309B1FC
:104200000D4A00E00D4A94F8AE011360002584F8D1
:10421000AD5120B12046FFF7B2FF84F8AE5194F8BB
:10422000AF1129B12046FFF7C1FF002384F8AF3159
:10423000BDE83840FDF728BA84F00F4088F00F4001
:1042400030B5044C1825218005FB01216260A16076
:10425000237330BDCC1C0020F8B55B4B19881826A1
:104260004E430024B44207D0574F7D6800202855A4
:10427000BB6818550134F5E7544EFF20012130602A
:104280000220FDF781F80E200121FDF77DF80720BF
:104290000121FDF779F808200121FDF775F80620C6
:1042A0000121FDF771F814200121FDF76DF81520AB
:1042B0000121FDF769F805200121FDF765F8424A63
:1042C000434B157B434805F01007F9B200290CBF9A
:1042D00005461D4629460320FCF7E4FF0420294635
:1042E000FCF7E0FF3C210320FDF76AF80420B02131
:1042F000FDF766F8384F394A394D3A6003200221FC
:10430000FDF742F80F200021FDF73EF83549364B06
:10431000364F196001F5007028603A68344DDFF8B7
:10432000F8C042F02001396057F8043C314A43F0AC
:10433000020047F8040C304F3048002301212B6065
:10434000EB6017609380D3809160D36010612C483C
:104350009382A2B20280C0F802300820ACF80000BC
:10436000ACF80220ACF80810ACF80A30CCF80C100D
:10437000C4F1000C234CC4F800C0DFF8A0C0C4F89E
:1043800004C023816281E3602082628267612383AB
:104390006383E1611C491D460B604E600B814A81BD
:1043A000CB601A4B0A21198019495A80B2220D702C
:1043B000B3230A70B1224D704B708D708A7015490D
:1043C0001C340860F8BD00BFCC1C0020C8F00F40B2
:1043D000801A060000350C0000A004400003010014
:1043E000349004400001020000B0044040800440CA
:1043F0000080004020900040FA470000C4F00F40C9
:10440000369000404C9000406C9000407C90004002
:104410000110024000E100E03C900040C0F00F407D
:1044200008B5054B03221A70FDF764F803490861CB
:104430000020087508BD00BF1F800040CC1C002074
:1044400010B5074C237D43B9FDF754F82169401A94
:1044500031288CBF0020012010BD012010BD00BFFD
:10446000CC1C002008B51B4B1A7D002AFBD1986894
:10447000596858609960184B1860FDF73BF8154A69
:104480001169401A3128F8D9144B196818331B6880
:1044900072B601201075124A10689842FBD9106854
:1044A0009842FCD810689842FCD30C4B0D4801F0A0
:1044B000E7021A600122026000F5805002600A4A99
:1044C0004FF400501060094A0E201060196062B667
:1044D00008BD00BFCC1C002040900040009003406D
:1044E00004900340A0A00440A09004400C80004031
:1044F0004008FE4340A004404408FE4344A004405A
:104500000018FE4300C004403000FE4330900440D9
:104510003400FE43349004401C18FE431CC0044089
:104520001018FE4310C004400818FE4308C00440A1
:104530000C18FE430CC004400C10FE430CB00440A9
:104540001010FE4310B004401810FE4318B0044091
:104550001C10FE431CB004401410FE4314B0044071
:104560000418FE4304C004400010FE4300B00440A1
:104570000008FE4300A004400408FE4304A00440D9
:104580000C08FE430CA004400808FE4308A00440A9
:104590001418FE4314C004401818FE4318C0044009
:1045A0000410FE4304B004400810FE4308B0044069
:1045B0001400FE43149004404C08FE434CA00440F9
:1045C0000420FE4304D004402410FE4324B00440E1
:1045D0002010FE4320B004402810FE4328B00440C1
:1045E0002C10FE432CB004400020FE4300D00440B9
:1045F0004808FE4348A004401000FE4310900440C9
:1046000019000000000100004247000012000000F5
:1046100000020000544700002B00000000030000CF
:1046200080470000000000000103000084470000F4
:104630000000000002030000964700000000000098
:104640000303000000000014000000000403000049
:10465000AA47000000000000EE030000D44700005D
:10466000000000000000000000000000000000004A
:104670009200000000010500010088000000070012
:1046800000002A00440065007600690063006500B0
:1046900049006E00740065007200660061006300EE
:1046A00065004700550049004400730000005000B9
:1046B00000007B00360032006600640034003100E8
:1046C000320033002D0038003700650033002D0024
:1046D00034003700660065002D00390034003600D4
:1046E00061002D00650030003400340066003300A6
:1046F0003600660032006600620033007D00000074
:104700000000400000000001040002000000000062
:104710000000000157494E555342000000000000C0
:1047200000000000000000000000010157494E5544
:1047300053420000000000000000000000000000E4
:1047400000001201000200000040501D7A600701C5
:104750000102030109022B0002010080320904005A
:104760000001FF00000007050102400000090401EC
:104770000000FE01010409210D10270004010100C1
:104780000403090412037300630061006E006C00EF
:1047900069006D0065001403460061006400650057
:1047A000630061006E00640079002A034600610026
:1047B00064006500630061006E0064007900200001
:1047C00042006F006F0074006C006F0061006400B5
:1047D0006500720012034D00530046005400310082
:1047E000300030007E0000004661646563616E64E5
:1047F000792076312E30370D0A00FFFF8D40000002
:0400000300001000E9
:00000001FF
