:10000000FC1F0020F900000003E2FF1F03E2FF1FB6
:1000100003E2FF1F03E2FF1F03E2FF1F01E2FF1FD6
:1000200001E2FF1F01E2FF1F01E2FF1F03E2FF1FCA
:1000300003E2FF1F01E2FF1F03E2FF1F03E2FF1FB6
:1000400003E2FF1F03E2FF1F03E2FF1F03E2FF1FA4
:1000500003E2FF1F03E2FF1F03E2FF1F03E2FF1F94
:1000600003E2FF1F03E2FF1F03E2FF1F03E2FF1F84
:1000700003E2FF1F03E2FF1F03E2FF1F03E2FF1F74
:1000800009E7FF1F03E2FF1F03E2FF1F03E2FF1F59
:1000900003E2FF1F03E2FF1F03E2FF1F03E2FF1F54
:1000A00003E2FF1F03E2FF1F03E2FF1F03E2FF1F44
:1000B00003E2FF1F03E2FF1F03E2FF1F03E2FF1F34
:1000C00003E2FF1F03E2FF1F03E2FF1F45E2FF1FE2
:1000D00003E2FF1F03E2FF1F03E2FF1F03E2FF1F14
:1000E00003E2FF1F03E2FF1F03E2FF1F03E2FF1F04
:1000F00003E2FF1F03E2FF1F434B4CF220524DF679
:1001000028101A80188000BF00BFD32123F80E1CCE
:10011000002207204FF4A6411A8123F80A0C3B4A1B
:1001200023F8081C3A483B4B3B491A6058600A7850
:1001300002F00803D8B218B10A7842F008030B7035
:100140003648374B0A2101702422A0211A7003F887
:10015000011C3448027802F00203D9B20029F8D019
:100160003048027802F01003D9B20029F8D12D48A6
:10017000027802F00C03082BF9D12B48032140220E
:10018000017000234270294A29499818884204D2F4
:100190002849585898500433F5E72748274B984288
:1001A0004FF0000302D240F8043BF7E72448254A09
:1001B000195899500433B3F5807FF7D12248026073
:1001C000184A117801F02003D8B20028F8D0154A57
:1001D000117801F04003D8B20028F8D01B4A1C491E
:1001E0001C4B0A60202018700E4A117801F00C0098
:1001F0000C28F9D1184B194902221A60443B1960A6
:1002000062B600F0E9B800BF0E200540823F04004E
:100210000100002B3880044002D007400050064007
:1002200001400640064006400440064000E2FF1F31
:10023000D4ECFF1F1004000000F0FF1F30F5FF1F7B
:100240000000000000F0FF1F08ED00E000000311B7
:10025000448004400040064048800440C01005002F
:10026000184B1A6842F48061174A19600023137012
:100270001649174A0B7013701649174A0B70137002
:10028000164B40F213314FF4517219605A60144BFF
:10029000C0F34431C0F34712197000F01F005A70C8
:1002A000104A98720221042313705174D3740E4BB8
:1002B000882018700D483C224FF4803103F80D2C33
:1002C000016070473480044022F5FF1FA1F4FF1F36
:1002D00024F5FF1F23F5FF1FA0F4FF1F40A00440DB
:1002E00000A0064002A0064010A0064000E100E089
:1002F000114B19684B051ED5104A137801333F2B5B
:1003000088BF00230E490A789A4209D172B60D4A75
:100310004AF2026111804BF28041118062B6F1E72E
:1003200009490A4AC854012010700449084ADBB23E
:10033000BC200B70107070473480044024F5FF1F00
:1003400023F5FF1F0C200540A2F4FF1FA0F4FF1FA0
:1003500003A0064038B545180446AC4204D014F852
:10036000010BFFF7C5FFF8E738BD074B187848B118
:1003700072B606494AF202624BF280430A800B8051
:1003800062B6F2E7704700BFA0F4FF1F0C200540E3
:1003900008B50B4B1868420511D5FFF7E6FF094970
:1003A00009484FF480320A600849002340F20312E2
:1003B00003700A6006484A60064A0370137008BD5D
:1003C0003480044080E100E003A0064040A00440E7
:1003D00022F5FF1FA1F4FF1F01B40248844601BCAF
:1003E000604700BF15E8FF1FFFFFFFFFFFFFFFFF94
:1003F000FFFFFFFFFFFFFFFFFFFFFFFFFFFFFFFF0D
:10040000FFFFFFFFFFFFFFFFFEFFFFFFFEFFFF40BD
:10041000FEE7FEE7F0B50C4B0C4C1A7842F00205F3
:1004200004EBC50682F00102706009481A70067874
:10043000002E0CBF8827C82747EA014186F0010635
:1004400044F835100670F0BD48F4FF1F00E0FF1FB0
:100450009FF4FF1F2DE9F743924A137803F004013C
:10046000C8B208B10421117003F00802D2B2002A08
:1004700000F090818C4D2D782B0940F08781AD08DC
:100480008A4C54F8351004EBC507C1F383000928E2
:100490007F6800F058810D2803D0012840F0738157
:1004A0001CE1796882483A6841608249026044F8F8
:1004B0003510814C8149236001240C7092B280492F
:1004C000B2F5A06F0B8068D021D840F221139A4278
:1004D00000F08B800CD8822A3FD0B2F5817F4ED0BD
:1004E000802A40F0AE80774C002626706670ABE024
:1004F00040F2A1339A4200F0888080339A4200F0A3
:100500008B8040F20230824240F09B8047E040F214
:1005100081618A420BD8B2F5D06F4ED240F2A1531E
:100520009A427FD080339A4240F08B8082E0B2F5CD
:10053000106F0FD008D8B2F5086F40F08280624C7F
:100540002678604C267073E0A2F5FD43403B012BFA
:1005500077D845E081785C4D1EE080885B4B08B120
:100560000F210FE1574C0026267066701B7803F0B0
:100570000202D5B2002D67D00121217064E04C4801
:10058000828851065DD14388002B5AD14F4C95008B
:100590002D19297821F0020129701C465BE044499D
:1005A0008A8850064DD14B88002B4AD1474E940083
:1005B000A519287840F00201EEE74288444B53F831
:1005C000084CA3F10C01002C3BD00C3333F8180C71
:1005D0009042F4D1150A032D0CBF23780B893AE021
:1005E000334A918804292CD130E0818849BBC188E5
:1005F00049B9408800910A460B4600F0D5FA10B977
:10060000324E0F2434700023C7E78088C8B92D48C4
:1006100000F02EFBE8B914E0254B9A888AB900F067
:1006200091FB0CE0818861B900F0B8FA254C20708C
:10063000012310E01E4A908818B900F099FB0028A9
:10064000E1D10F21214B9DE0022304E02823214C1E
:1006500001E01C4C06231648C688B34238BF1E462C
:10066000402E34BF3546402520462946FFF7D2FEAE
:10067000761B2C4404D1402D40F08580354603E0A4
:10068000402E34BF3546402520462946FFF7C2FE9E
:10069000761B2C4401D1402D75D1074B0E4A1C60AE
:1006A000168070E0802007409020074000E0FF1F88
:1006B0008CF4FF1F8000400000F4FF1F9FF4FF1F19
:1006C00004F4FF1F96F4FF1F9EF4FF1FC020074095
:1006D000D4EBFF1F6EECFF1F94F4FF1F4C4B1988E7
:1006E00040F2211291422AD198884A4A18B11188C1
:1006F000DB88994220D8464E1288F188708800978E
:10070000C2EB0109B9F1400F28BF4FF040094B4639
:10071000DFF8008100F048FA70B1B8F80000F28804
:1007200081441FFA89F94A45A8F8009007D83A4849
:100730000021FFF76FFE02E0384B0F211970384897
:1007400044F835001FE0374D2D6895B1364E378897
:10075000402F34BF3C46402428462146FFF75AFE2E
:10076000391B88B2308008B9402C00D128192D4B94
:10077000186027490A88B2F5A06F04D1002048709C
:100780002A4B897819702A4801220270294B0821C6
:10079000197061E6D9071FD52549274B2048022447
:1007A0000C701A70254B264C1860986025481A6109
:1007B000D8609A615C60194B0D2018702248FF23A5
:1007C000037000F8083C0274204A1370204B9F20ED
:1007D000012218700A7018E01A0605D50F4A0D207C
:1007E0008021107002F8401C03F00200C2B22AB14E
:1007F000154801780222017000F8082C03F010035C
:10080000D8B210B10B4A10211170BDE8FE8300BFB1
:100810008CF4FF1F04F4FF1F96F4FF1FC020074055
:100820008000400000F4FF1F94F4FF1F9820074051
:10083000942007408020074048F4FF1F00E0FF1F7E
:1008400008F4FF1F4CF4FF1F882007408C2007404E
:1008500084200740174B1A6842F480201860164B1A
:10086000802119701878144A0006FBD4134B1449E0
:10087000C3F307200870C3F3074008751B0EFF2061
:100880000B7601F81C0C01F8140C01F88C0C117893
:10089000012041F040030021137002F8780C094B4D
:1008A00002F80C1C084902F8880C082210201A6073
:1008B00008707047348004400C21074000E0FF1F9F
:1008C0009C20074004E100E008210740044B054953
:1008D00018780A78904238BF4030801A704700BFBD
:1008E00022F5FF1FA1F4FF1F084B1978084B1A7857
:1008F000914208D0501CC2B23F2A88BF002205494D
:10090000885C1A7070474FF0FF30704722F5FF1F68
:10091000A1F4FF1FE2F4FF1F10B5304B187810F060
:10092000300F21D072B62E490A7832B90F390B78C0
:100930002C4B4021197062B616E062B62A4C2B4847
:10094000237800782A490C78591CC9B23F2988BFFE
:100950000021814202D0274B5C540B46013A12F031
:10096000FF02EFD120480370234A107841B20029DA
:10097000C2B221DA194B187803061DD51F4C204945
:1009800024780B78A3420ED001331448DBB20178EF
:100990001C493F2B88BF0023C85C154908700D31E6
:1009A00008780728EED916490B700C4B187800060A
:1009B00002D5114B7C21197002F04002D0B258B11F
:1009C00006490B7803F04002D0B228B10E4B0A481A
:1009D00000213C221970027010BD00BF04A0064027
:1009E00016A0064011A0064022F5FF1FA1F4FF1F2C
:1009F00007A00640E2F4FF1F03A0064024F5FF1FF6
:100A000023F5FF1FA2F4FF1FA0F4FF1F72B6044BD3
:100A10004AF202624BF280401A80188062B6704738
:100A20000C20054038B542F2107000F0ADF90721F6
:100A30002E4800F0B1F90A2000F0BEF900F0C4F928
:100A40000024FFF743FF40B1FFF74EFF274BE15C67
:100A5000884202D10134072CF3D100F0A5F9072C0C
:100A60000BD0234C6068A0F58052B2F5F83F04D259
:100A7000204D21492B688B4227D1204A204C202031
:100A80004FF4A2752560106042F8140C00F06EF867
:100A9000FFF7E0FE00F082F8072802D0FFF7B6FF6C
:100AA000F8E7144B002119600B2416482025056037
:100AB000154DFFF7ABFF013DFBD1013CF5D1FFF731
:100AC000A5FF72B6114A1470FEE772B610480460B2
:100AD000FFF79CFF00222A60206861684FF0FF3317
:100AE0009E4685460847002038BD00BFC4ECFF1F66
:100AF00000100000FC1F00204643627494F00F4079
:100B000014B004408CF00F40A0860100082107407B
:100B100008ED00E0030610B520D510F0400407D022
:100B20000F48104B0A220E2102701970002213E0A8
:100B300010F0300208D00A4A0A4B0A2111700A4903
:100B4000082018700C7009E010F0010007D0044B69
:100B50000A2018700348017003480270012010BD7C
:100B6000CCECFF1F2DF5FF1F2CF5FF1F094B1A784A
:100B70001106FBD508488121FF22017000F8012CE5
:100B80007021802019701870024B1A781206FBD55C
:100B9000704700BF0000024007000240014B187878
:100BA000704700BFCCECFF1FF0B59C18B4F5806F08
:100BB000059E01D88C4204D9264B0A2119700822BF
:100BC00020E0254DAA1800259D4203D0775D57559A
:100BD0000135F9E78C423BD11E4B1A78022A05D029
:100BE000052A03D00A2018700F220BE01B49194A6E
:100BF0000B7813F0800F02D0194E337833B10A21ED
:100C000011700E22174802700020F0BD24B915485B
:100C10000623137004701BE08402134804F580540B
:100C2000046001251148357009260670C4F3074693
:100C3000240AE4B200F8016C00F8024C00F8033C0E
:100C4000702008708020087003211170054A13700D
:100C50000120F0BDCCECFF1F00000014000002409A
:100C60002CF5FF1F2DF5FF1F28F5FF1F0700024081
:100C70002C4AF8B51378032B044642D3042B08D929
:100C8000062B3ED107201070274A4FF47A7111606D
:100C900037E0264D264E2F783078012F02D0022FD4
:100CA00024D11EE00421FFF735FFF8B92149224A7B
:100CB00002232B700B680B211170C3F3074102F85C
:100CC000011CC3F30721DBB202F8021C02F8033C4B
:100CD0001A4A8021177002F8010C702030703170B0
:100CE00004E00721FFF716FF00B928700D4B1A78B2
:100CF0000A2A06D00D48017809B9052200E004222D
:100D00001A700F4B084918780B68064920701A0AA8
:100D1000180C63700B78A2700022E070237162716E
:100D20000120F8BDCCECFF1FD0ECFF1F2CF5FF1FFE
:100D30000000024028F5FF1F070002400B000240A0
:100D40002DF5FF1F084B09481A780A2A05D10222FF
:100D5000002101701A70012070470A2119700F23B9
:100D600003700020704700BFCCECFF1F2DF5FF1F64
:100D7000034B04490020022208701A7001207047BA
:100D8000CCECFF1F2DF5FF1F01B40248844601BCC7
:100D9000604700BF6102000001B40248844601BC04
:100DA000604700BF5503000001B40248844601BCFF
:100DB000604700BF9103000001B40248844601BCB3
:100DC000604700BFF102000001B40248844601BC44
:100DD000604700BF6B030000000100001CECFF1F18
:100DE000120000000002000040ECFF1F1B0000008A
:100DF00000030000C0ECFF1F000000000103000022
:100E00002EECFF1F000000000203000096ECFF1F05
:100E100000000000EE0300005CECFF1F000000007B
:100E200000000000000000000000000012010002AD
:100E300000000040501D8260010101020001120308
:100E40007300630061006E006C0069006D00650056
:100E500009021B0001010280320904000000FE01AA
:100E6000020209210D1027000401010012034D00A8
:100E70005300460054003100300030007E0028004E
:100E8000000000010400010000000000000000015B
:100E900057494E555342000000000000000000007A
:100EA0000000000000002A034600610064006500A5
:100EB000630061006E0064007900200042006F0052
:100EC0006F0074006C006F006100640065007200C8
:100ED0000403090446432D426F6F740002000000B2
:040EE000010000000D
:10100000FC1F00200D110000FB100000FB10000071
:10101000FB100000FB100000FB100000F9100000A6
:10102000F9100000F9100000F9100000FB1000009A
:10103000FB100000F9100000FB100000FD10000084
:10104000FB100000FB100000FB100000752D0000DD
:10105000FB100000FB100000FB100000FB10000064
:10106000FB100000FB100000FB100000FB10000054
:10107000FB100000FB100000FB100000FB10000044
:1010800075200000FB100000FB100000FB100000AA
:10109000FB100000FB100000FB100000FB10000024
:1010A000FB100000FB100000FB100000FB10000014
:1010B000FB100000FB100000FB100000FB10000004
:1010C000FB100000FB100000FB1000005117000097
:1010D000FB100000FB100000FB100000FB100000E4
:1010E000FB100000FB100000FB100000FB100000D4
:1010F000FB100000FB100000FEE7FEE7024B1A6841
:10110000501C1860704700BFB409002010B50023C0
:10111000134A14499818884204D213495C589C50C9
:101120000433F5E7114B124CA34203D2002043F8DD
:10113000040BF8E70F4B4BF67F3207201A6043F899
:10114000040C62B600F05CF80B4C0C498C4203D0E6
:1011500054F8042B9047F8E701F09CF8FEE700BF35
:1011600080090020B409002054310000B409002097
:10117000D81E002014E000E050310000543100007F
:10118000014B1868704700BF00D00340044B05496D
:1011900000221A600A60044A10601020186070472C
:1011A00014D0034004D0034000D0034000280EDBDD
:1011B00002024FF48073B2F5004F06D3013B012BBE
:1011C000C0EB020101D00A46F5E7100A10E04042E8
:1011D00002024FF48073B2F5014F06D3013B012B9D
:1011E000C0EB020101D00A46F5E7110AC1F5807093
:1011F000013B024940EA0320086070470CD00340DD
:10120000104B114A00204BF6FF7110B518600F4CBF
:101210005960282313609360136193611362936292
:101220001363936309222260094C2060094801601E
:1012300009490B608B60094B1A60BDE8104000F053
:101240005BBD00BF048003400C800340008003406E
:1012500004900340089003400C900340009003402A
:1012600018B1102828BF102000E00120014B187091
:10127000704700BF8009002010B500234FF437727B
:1012800042FA03F2914202D80133072BF6D1164AF3
:1012900042FA03F202EB5102B2FBF1F101394FF6CF
:1012A000FF72914228BF1146C21E012A06D80F4A7A
:1012B0000F4C0020106020600E480FE0421F012AF2
:1012C00006D9092804D00A2802D01438032809D8DE
:1012D000094A0A4C002010602060094843F00803C6
:1012E0000160136010BD00BF006CDC020090034081
:1012F00004900340089003400080034004800340B2
:1013000008800340212810B518D80D4A52F8303013
:1013100093F880423CB1012011B183F8800010BDE8
:1013200083F8000110BD02EBC00043681A6811B1D8
:1013300042F0030101E022F00201196010BD00BF7C
:10134000442E0000212805D8034B53F8300090F8B4
:101350000002704700207047442E0000212816D854
:101360000B4A02EBC00301295B6852F8302004D11C
:1013700082F880124FF4A27108E0002082F8800207
:1013800011B94FF4807101E040F203111960704708
:10139000442E000038B53B4B1A780125002904463D
:1013A00005FA02F301DC002102E0994205D3294647
:1013B000FFF7A8FF204629465FE00338C3B2012BA0
:1013C00094BF314B314B1B6801334B4323FA02F37B
:1013D000142849D8DFE800F00B11171D48482329CD
:1013E0004848484848484848482F353B4100284825
:1013F0004FF451720360274834E0274A27481360AE
:101400004FF451722EE0264926480B6040F24442C8
:1014100028E0254840F244420360244822E0244A60
:101420002448136040F244421CE0234923480B60E7
:1014300040F2444216E0224840F244420360214810
:1014400010E0214A2148136040F244420AE020495A
:1014500020480B6040F2444204E01F491F480B60E3
:1014600040F24442026038BD7F292046D4BF0021AB
:101470000121FFF747FF20460121BDE83840FFF773
:101480006DBF00BF80090020089003400880034022
:101490001090034030900440189003403490044072
:1014A000488003401CC004403080034010C004400A
:1014B000208003400CB004402880034010B004405A
:1014C0003880034014C004404080034018C00440EA
:1014D0001080034004B004401880034008B004406A
:1014E00072B60B4B0B480C491A680368086862B661
:1014F000410102D5322A88BF0133C2F53B427F3217
:101500003021B2FBF1F24FF47A7000FB03207047F8
:1015100018E000E0B409002004ED00E038B504460E
:10152000FFF7DEFF054654B1FFF7DAFF401BB0F5C9
:101530007A7FF9D3013C02D005F57A75F4E738BD1E
:101540001FB5154B15491868154C03900A681548C6
:101550000292236801930168134B009100221DF849
:1015600002401248634001324343102AF7D100225F
:101570001DF802100D4C0E484B4063431A21B3FB7B
:10158000F1F400EB420001FB143101324131102A29
:101590004180EDD11FBD00BF5480044058800440FD
:1015A0005C80044060800440C59D1C819301000163
:1015B0008209002070B5134C94F8802004F1400596
:1015C000002A08BF254600238B4203D0C65CEE5498
:1015D0000133F9E794F8811000290CBF8820C82056
:1015E00040EA034342F00205074840F83530054B16
:1015F00081F0010182F0010283F8811083F88020DC
:1016000070BD00BFB809002000E0FF1F01280ED107
:1016100072B6084BD3F8840010B14268C3F8842036
:10162000054B02881988891A198062B67047002014
:10163000704700BFB8090020D41E002001280BD13C
:10164000064BD3F8881072B6002019B10A88496891
:101650008018FAE762B6704700207047B80900208A
:1016600001280AD1064BD3F8881072B6002011B1B8
:1016700001304968FBE762B670470020704700BF41
:10168000B809002072B6114B197801F00802D3B2E4
:101690002BB10F4B0F4A196A41B1996A59B162B621
:1016A0000C4B002283F88C2000F09CBB0A490830C8
:1016B0005862196203E00830D8620848986292F8CC
:1016C0008C30581E82F88C0062B67047542F000090
:1016D00000E0FF1FB809002088004000C80040005B
:1016E00001282ED172B6174890F88D30032B08D8F8
:1016F000DFE803F014021604022200E00422124B79
:1017000010E0D0F888200F4B12B9C3F8881002E01F
:10171000D3F890305960C0F8901011E0032200E037
:1017200005220A4B80F88D2013F0080F01F1080004
:10173000098858600CBF8822C82242EA014018601C
:1017400062B67047B809002038E0FF1F30E0FF1F85
:101750002DE9F041B24A137803F00401C8B208B190
:101760000421117003F00802D2B2002A00F068824E
:10177000AC4D2A78AC4D13094FEA920740F0D08166
:1017800005EBC70155F837204868C2F383010929E2
:1017900000F09C810D2906D0012940F0BD81A34BAA
:1017A00045F83730B8E1A24C02684068C4F89C2084
:1017B0009E49C4F8A00092B20120B2F5A06F45F88E
:1017C0003710C4F8A43084F8810000F051811ED88D
:1017D000822A00F0AB800CD8212A00F03B81802ABD
:1017E00040F04281924C002684F8946084F8956021
:1017F00040E140F202318A4200F0C1809F318A42CA
:1018000000F0ED80B2F5817F40F02E81A5E0B2F5C9
:10181000086F00F0858010D840F2A150824200F09D
:10182000F480C0F02181A2F5D061012900F21C8171
:101830007F4C804BB4F89E20B9E0B2F5106F08D011
:10184000C0F01281A2F5FD43403B012B00F20C8158
:10185000B9E094F89E6084F8A8602C6A200604D54C
:10186000714D686A083800F0BDFA714ED6F88400F0
:1018700020B1456800F0B6FA2846F9E7C6F88400BA
:10188000C6F8AC00D6F8880020B1446800F0AAFA87
:101890002046F9E76649684AC1F88800C1F8900017
:1018A000108091F88D00831E032B08D8DFE803F029
:1018B00002040204002600E0012681F88D60002564
:1018C00081F88C505D495E4A0878594C107000F0E0
:1018D0000803DEB2FEB100F059FA534DB0B994F8E6
:1018E0008C102862481C84F88C0000F04FFA4E4B94
:1018F00038B94F4E986296F88C20551C86F88C505B
:1019000009E04A490830D862996204E04D4C083039
:1019100068622C62E9E74448002303638363A7E01D
:1019200094F8A83004F8943F0346A5E0B4F8A0204A
:10193000012A00F2998084F8943084F89530424B63
:101940009600F518297801F00202D6B2002E00F0B8
:10195000918004F8940F02238EE03548B0F8A0205F
:1019600002F07F03012B7FDCB0F89E30002B7BD18F
:10197000354D96007219147824F0020110E0B4F885
:10198000A01001F07F03012B6EDC2948B0F89E30D7
:10199000002B69D12C4D8E007219147844F002018D
:1019A000117065E00C3333F8180C904206D053F8F0
:1019B000084CA3F10C01002CF4D155E0150A032DBD
:1019C0000BD00B8958E01A49B1F8A000042801D1C6
:1019D0001E4C02E0052847D11D4C23784CE0144CE6
:1019E000B4F8A01001293FD194F8B02084F89510E4
:1019F000002084F8940084F8960084F8970084F816
:101A0000982084F89900062335E0B4F8A020012A34
:101A10002AD1074C94F8B060012304F8946F2BE0AE
:101A2000802007409020074000E0FF1FC8004000D2
:101A3000B8090020642F0000D41E0020542F00009D
:101A4000C420074088004000C020074056300000F6
:101A5000C42F0000B4F8A030012B05D19A4C012509
:101A600084F8B050002303E0984B0F221A702AE04C
:101A70001C4601E002239434934AB2F8A260B342B8
:101A800038BF1E46402E34BF3546402520462946E5
:101A9000FFF790FD761B2C4403D1402D13D1354622
:101AA00003E0402E34BF3546402520462946FFF747
:101AB00081FD761B2C4401D1402D04D18249C1F80F
:101AC000A440A1F8B2600122814924E07E4ED6F8FC
:101AD000A450A5B1B6F8B270402F34BF3C464024A4
:101AE00028462146FFF766FD381B83B2A6F8B230C0
:101AF0000BB9402C00D12B19734AC2F8A43072499B
:101B0000B1F89C00B0F5A06F06D1002381F89D309C
:101B100091F89E206F490A706D4B012018708BE080
:101B200005EBC7065C1E716802F00803DAB2A1F18A
:101B30000800E4B2002A46D000F054F9624B03EBEF
:101B40008401D1F8882022B35068C1F888001819A0
:101B500002F10801716090F88D10032910D8DFE8B8
:101B600001F00205080B1C19032307E01C190223CE
:101B700004E01C19052301E01C19042384F88D30AE
:101B800016F0080F12880CBF8820C82040EA0243D4
:101B900050E0181990F88D20032A0BD8DFE802F0E6
:101BA0004C4C02051C19002301E01C19012384F888
:101BB0008D3041E016F0080F1C440CBF02210321B8
:101BC00084F88D1038E055F837301B0C21F8083CAC
:101BD00053B3DFF8F4C041F8042C4FEA840E0CEB49
:101BE0000E02D2F8841011B9C2F8840002E0D2F8D3
:101BF000AC2050600CEB0E01DFF8CC80C1F8AC00DB
:101C0000354830F814209B1820F8143000F0BEF846
:101C100010B10830706007E098F88C1045F8370074
:101C2000481C88F88C0007E02C4B2D4A16F0080F52
:101C300008BF134645F837302A4908220A7089E55B
:101C4000D90726D52248284B1F4902240470244C6A
:101C500059611C609C6081F8802001F1B40501F19C
:101C6000F40440311A619A61D9615D60DC60174B00
:101C70000D2119701D49FF230B7001F8083C0A74EF
:101C80001B4A13701B4B9F21012219700270BDE883
:101C9000F0811A0605D50D4A0D208021107002F83A
:101CA000401C03F00200C2B22AB11048017802229F
:101CB000017000F8082C03F01003D8B210B1094AE3
:101CC00010211170BDE8F081B8090020C020074044
:101CD0009420074098200740D41E0020C8004000F0
:101CE000880040008020074000E0FF1F8820074058
:101CF0008C2007408420074008B5FFF721FC1D4BCE
:101D00001D4800221A609A601A619A611A6201687D
:101D10005A60DA605A61DA615A6241F480220260E4
:101D20001648802101700178144A0906FBD4144931
:101D3000C3F307200870C3F3074008751B0EFF208C
:101D40000B7601F81C0C01F8140C01F88C0C1178BE
:101D5000012041F040030021137002F8780C094B78
:101D600002F80C1C084902F8880C082210201A609E
:101D7000087008BD00E0FF1F348004400C210740BC
:101D80009C20074004E100E00821074010B572B62E
:101D90000023124A52F8231011B90133042BF8D151
:101DA000B1FA81F000EB4312672A02D962B6002033
:101DB00010BD02F01F004FF0004424FA00F021EAA9
:101DC0000001064840F8231062B6054948235A43EB
:101DD000881800238B50436010BD00BFA409002069
:101DE00040ECFF1F0F4B4822C11AB1FBF2F3672BE7
:101DF00016D80D490A7822B10C490A780AB1FFF7C2
:101E000041BC590972B60A4A4FF0004003F01F0363
:101E100020FA03F352F82100034342F8213062B65E
:101E2000704700BF40ECFF1F440A0020600A0020FA
:101E3000A409002072B6044B4AF202624BF28040C1
:101E40001A80188062B670470C200540164B1A683D
:101E500042F480611960154B00221A705A709A7012
:101E6000DA701A71124B40F213314FF4517219604B
:101E70005A60104BC0F34431C0F34712197000F0A0
:101E80001F005A700C4A9872022104231370517477
:101E9000D3740A4B8820187009483C224FF48031D3
:101EA00003F80D2C0160704734800440EC0A0020D8
:101EB00040A0044000A0064002A0064010A006403A
:101EC00000E100E008B50C4B1868430500D408BDDC
:101ED0000A4A137913B1FFF7ADFFF9E708494FF448
:101EE0008030086007480370074840F20311016022
:101EF00041601370537008BD34800440EC0A002028
:101F000080E100E003A0064040A004400E4B70B505
:101F100006461868420516D50C498C7801340D46E2
:101F2000072C88BF0024EA78084BA24202D1FFF7B1
:101F300081FFF8E718190121E4B2467119719C700C
:101F4000034BBC221A7070BD34800440EC0A0020A0
:101F500003A0064000F00F00092801D8303000E04F
:101F60003730FFF7D3BF174B2DE9F041064618680D
:101F70008846410524D5344606EB08018C421CD224
:101F8000114FBD78FF780135072D88BF0025AF427E
:101F900009D00D4914F8010B4A190123EDB2507113
:101FA0000B718D70E8E70949BC200870FFF742FF0C
:101FB000054AD378BB42F9D0EBE7044BBC221A7038
:101FC000BDE8F08134800440EC0A002003A0064004
:101FD00008B5034B187910B1FFF72CFFF9E708BDDE
:101FE000EC0A0020034A10785378984238BF083032
:101FF000C01A7047EC0A0020084B19785A789142B1
:1020000008D0501CC2B2072A88BF00229918487B0A
:102010005A7070474FF0FF30704700BFEC0A002045
:10202000054B19785A78914202D09818407B704736
:102030004FF0FF30704700BFEC0A0020094B1868D2
:1020400040050ED5084B1A7802F0CB01074A1970EB
:1020500040201070197841F034001870044B5A7801
:102060001A7070473480044003A0064011A0064057
:10207000EC0A002010B5304B187810F0300F21D04A
:1020800072B62E490A7832B90F390B782C4B4021A1
:10209000197062B616E062B62A4C237860782A4935
:1020A0000C78591CC9B2072988BF0021814203D08E
:1020B000244B5B185C730B46013A12F0FF02EED121
:1020C00020480370214A107841B20029C2B221DAB7
:1020D000194B187801061DD51A498C78CB78A34284
:1020E0000FD01548013301781649DBB2072B88BFA2
:1020F0000023C8181449407908700D310878072862
:10210000EDD91049CB700C4B1878030602D50F4B54
:102110007C21197002F04002D0B258B106490B7808
:1021200003F04002D0B228B1064B084800213C22FF
:102130001971027010BD00BF04A0064016A0064031
:1021400011A00640EC0A002007A0064003A00640AC
:1021500038B5451E15F8014F44B10A2C02D10D20A7
:10216000FFF7D4FE2046FFF7D1FEF3E738BD10B5E8
:1021700004460009FFF7EEFE2046BDE81040FFF7D9
:10218000E9BE10B50446000AFFF7F1FF2046BDE89E
:102190001040FFF7ECBF10B50446000EFFF7E7FF55
:1021A000200CFFF7E4FF200AFFF7E1FF2046BDE81F
:1021B0001040FFF7DCBF00BFF0B517781D785678E8
:1021C0009278059C474301FB05775D789B784643F1
:1021D000504301FB03002E4B01FB0566390EC7F38C
:1021E000074203EB410703EB4101B7F8AE51B1F8E9
:1021F000AC11C2F580774F43310E02FB0577C6F371
:10220000074203EB410603EB4101B6F8B053B1F8C6
:10221000AE13C2F580764E4302FB0566020E03EB59
:102220004203C0F30740B3F8B025B3F8B255B4F990
:102230000210C0F58073534300FB0530B4F904204D
:10224000B4F9005001EB162605EB172702EB10211D
:1022500007F1800306F1800283F3100082F310037C
:10226000050A01F18002180A82F310031A0A6FF4BA
:10227000807303FB05772D0203FB006603FB02114D
:1022800045EA004027806680A1801043F0BD00BF72
:10229000040B00202DE9F04F01218DB00D20FFF738
:1022A0005DF81B4800F080FC40F24130FFF7CEFDA6
:1022B0001848FFF74DFF184B1878002840F092831C
:1022C00072B6164B4AF202604BF2804218801A80B6
:1022D00062B6DFF850A0504600F010FC9AF8B21732
:1022E00001F00203D8B2F8B90D4ADAF80400116817
:1022F000DAF800200991099B416E506E5B1A0A1AA8
:10230000934228BF13461904B1FBF2F00EE000BF60
:10231000B81E00203C310000680A00200C20054057
:10232000B4090020040B00204FF48030EB4A6FF416
:1023300080711368414301F18072E949079300EB12
:10234000002002F580330022059306900491039249
:10235000039BDFF890A34FF0150BB3FBFBF10320B9
:102360000BFB11334343DAF80020DAF8040052F88B
:10237000212050F821E00499059800910933D218E2
:1023800006997344FFF718FF430860F31869820841
:1023900063F310490309C10862F3082963F318685D
:1023A000420961F3000962F310488109020AC30976
:1023B00061F3082862F31867410A63F3000861F3C8
:1023C0001047830A010BC20A63F3082761F31866FA
:1023D000430B62F3000763F31046820B030C62F3B6
:1023E000082663F31865420CC10B62F31045020D19
:1023F00061F3000662F31864810C039AC30C61F365
:10240000082520FA0BF1403263F3000561F3104414
:10241000830DB2FBFBF1C00D63F3082460F30004ED
:102420000BFB112303204343DAF80020DAF8040001
:1024300052F8212050F821C00499093301F5C070E9
:10244000D2180090634406990598FFF7B5FE43083B
:1024500060F35969820863F35149C108030962F3C3
:10246000492963F35968420961F3410962F351480C
:102470008109020AC30961F3492862F35967410AD5
:1024800063F3410861F35147830A010BC20A63F306
:10249000492761F35966430B62F3410763F35146E1
:1024A000820B030C62F3492663F35965420CC10B9E
:1024B00062F35145020D61F3410662F35964810CE8
:1024C000039AC30C61F3492520FA0BF1803263F3C0
:1024D000410561F35144830DB2FBFBF1C00D63F381
:1024E000492460F341040BFB112303204343DAF832
:1024F0000020DAF8040052F8212050F821E0049975
:10250000093301F54070D21800907344069905987C
:10251000FFF752FE430860F39A69820863F3924919
:102520000309C10862F38A2963F39A68420961F3D7
:10253000820962F392488109020AC30961F38A2879
:1025400062F39A67410A63F3820861F39247830A50
:10255000010BC20A63F38A2761F39A66430B62F3A5
:10256000820763F39246820B030C62F38A2663F3BD
:102570009A65420CC10B62F39245020D61F382062B
:1025800062F39A64810C039AC30C61F38A2520FAE2
:102590000BF1C03263F3820561F39244830DB2FB09
:1025A000FBF1C00D63F38A2460F382040BFB11235B
:1025B00003204343DAF80020DAF8040052F821201F
:1025C00050F821C00499093301F59060D2180090A9
:1025D000634406990598FFF7EFFD430860F3DB6954
:1025E000820863F3D3490309C10862F3CB2963F37B
:1025F000DB68420961F3C30962F3D3488109020A27
:10260000C30961F3CB2862F3DB67410A63F3C308B4
:1026100061F3D347830A010BC20A63F3CB2761F34B
:10262000DB66430B62F3C30763F3D346820BC10B34
:10263000030C62F3CB2663F3DB65420C61F3C30644
:1026400062F3D345810C020DC30C61F3CB2562F319
:10265000DB6420FA0BF1039A63F3C30561F3D344FF
:10266000830D63F3CB2402F58073B3FBFBF1C00D44
:1026700060F3C3040BFB113303204343DAF800205B
:10268000DAF8040052F8212050F821E004990933C7
:1026900001F5C060D2180090734406990598FFF7C1
:1026A0008BFD430860F31C79820863F31459030916
:1026B000C10862F30C3963F31C78420961F3041911
:1026C00062F314588109020AC30961F30C3862F3FA
:1026D0001C77410A63F3041806E000BFC41E002003
:1026E000B8120020040B002061F31457830A010B79
:1026F000C20A63F30C3761F31C76430B62F30417D1
:1027000063F31456820B030CC10B62F30C3663F3B4
:102710001C75420C61F3041662F31455810C020D12
:10272000C30C61F30C3562F31C7420FA0BF1039AAD
:1027300063F3041561F31454830D63F30C3402F551
:10274000A073C00DB3FBFBF160F304140BFB11335A
:1027500003204343DAF80020DAF8040052F821207D
:1027600050F821C00499093301F5F060D2180090A7
:10277000634406990598FFF71FFD430860F35D79F0
:10278000820863F355590309C10862F34D3963F3B5
:102790005D78420961F3451962F355588109020ACF
:1027A000C30961F34D3862F35D77410A63F345185D
:1027B00061F35557830A010BC20A63F34D3761F386
:1027C0005D76430B62F3451763F35556820B030C9A
:1027D000C10B62F34D3663F35D75420C61F3451630
:1027E00062F35555810C020DC30C61F34D3562F354
:1027F0005D7420FA0BF1039A63F3451561F35554A8
:10280000830D63F34D3402F5C073B3FBFBF1C00DD0
:1028100060F345140BFB113303204343DAF8002027
:10282000DAF8040052F8212050F821E00499093325
:1028300001F51060D2180090734406990598FFF7CF
:10284000BBFC430860F39E79820863F39659C10884
:10285000030962F38E3963F39E78420961F38619A6
:1028600062F396588109020AC30961F38E3862F354
:102870009E77410A63F3861861F39657830A010B2A
:10288000C20A63F38E3761F39E76430B62F38617B9
:1028900063F39656820B030C62F38E3663F39E75D8
:1028A000420CC10B62F39655020D61F3861662F37A
:1028B0009E74810C039AC30C61F38E3520FA0BF1E0
:1028C00063F3861561F39654830D02F5E071C00D34
:1028D00063F38E34B1FBFBF30BFB131C60F3861424
:1028E000DAF80010032000FB0CF2DAF8040002F121
:1028F000090C51F82320049950F8233001F5286081
:1029000000900699059862446344FFF755FC42081D
:1029100060F3DF79830862F3D7590209C10863F3D2
:10292000CF3962F3DF78430961F3C71963F3D758EE
:102930008109030AC20961F3CF3863F3DF77410AE3
:10294000C30A62F3C71861F3D757820A010B62F317
:10295000CF3761F3DF76420B63F3C71762F3D756C5
:10296000830B020CC10B63F3CF3662F3DF75430CAC
:1029700061F3C71663F3D755810C030DC20C61F3E5
:10298000CF3563F3DF7420FA0BF162F3C71561F3FF
:10299000D754820D079B0399C3F81080C00D62F3D2
:1029A000CF3460F3C7140498C3F814904A1C83E82A
:1029B000F00018330793831D402A039204937FF499
:1029C000C7AC164800F0F8F99AF8B217CB077FF5B4
:1029D00072AC0023124A002098520233B3F5406FC4
:1029E000F8D168E40F4C104A256810490B950B9CF0
:1029F0000A600A340B4E37680A970A9B72B6A342E4
:102A000008D20B4D4AF202614BF2804629802E809B
:102A100062B6EFE7074A00201070FEE7B81E0020FC
:102A2000B8120020B409002046436274FC1F002045
:102A30000C200540082107402DE9F0410F4C04F11E
:102A40000C0704F17406384600F01EF804F1DC05AA
:102A5000304600F019F8284600F016F804F5A27088
:102A600000F012F80648074A2760402100236660FC
:102A7000A560BDE8F04100F08BB800BF040B00205A
:102A8000B81E002040E0FF1F38B505460024FFF7C0
:102A90007DF90023C21801330021402B1172F9D1B6
:102AA00028510434642CF2D1284638BD064A836884
:102AB0001268016882B00192019A5A664268816088
:102AC00080E80C0002B07047B409002010B5002364
:102AD0001F21B3FBF1F201FB123100EB82044A002B
:102AE0000A32D4F84411895A00EB43020133A2F8A8
:102AF000AC1140F203318B42EAD110BD38B5044627
:102B000000250120FEF782FD024690B3017A01F014
:102B1000200501F01F0301F0C0014029EDB212D0E1
:102B2000802920D011BBA168182B9CBF51F823002D
:102B300041F82320FFF756F90DB90125E1E72046BA
:102B4000FFF7B4FFF9E7182B05D804EB8303D3F89C
:102B50004401C3F84421FFF745F9002DEDD020468C
:102B6000FFF7B4FFE9E7427A84F8B227FFF73AF9B2
:102B7000E3E794F8B21701F00400C2B20D2012B1DD
:102B800001F0080100E02946BDE83840FEF7BABB75
:102B900030B5044C1825218005FB01216260A1603D
:102BA000237330BDBC1E0020F8B55C4B1988182675
:102BB0004E430024B44207D0584F7D68002028556A
:102BC000BB6818550134F5E7554EFF2001213060F0
:102BD0000220FEF7C3FB0E200121FEF7BFFB0720FA
:102BE0000121FEF7BBFB08200121FEF7B7FB062001
:102BF0000121FEF7B3FB14200121FEF7AFFB1520E6
:102C00000121FEF7ABFB05200121FEF7A7FB434A9C
:102C1000444B157B444805F01007F9B200290CBF5E
:102C200005461D460820FEF71BFB03202946FEF73C
:102C300023FB04202946FEF71FFB03203C21FEF75F
:102C4000A9FB0420B021FEF7A5FB384F384A394DC7
:102C50003A6003200221FEF781FB0F200021FEF7DE
:102C60007DFB3549354B364F196001F50070286002
:102C70003A68344DDFF8F4C042F02001396057F86B
:102C8000043C314A43F0020047F8040C2F4F30480F
:102C9000002301212B60EB6017609380D38091604B
:102CA000D36010612B489382A2B20280C0F8023038
:102CB0000820ACF80000ACF80220ACF80810ACF822
:102CC0000A30CCF80C10C4F1000C234CC4F800C03E
:102CD000DFF89CC0C4F804C023816281E3602082D5
:102CE0006282676123836383E1611C491D460B6037
:102CF0004E600B814A81CB60194B0A21198019491A
:102D00005A80B2220D70B3230A70B1224D704B70FD
:102D10008D708A7014491C340860F8BDBC1E0020F8
:102D2000C8F00F40801A060000350C0000A00440D7
:102D300000030100349004400001020000B0044090
:102D40004080044000800040209000404E31000050
:102D5000C4F00F40369000404C9000406C90004012
:102D60007C9000400110024000E100E03C900040F7
:102D7000C0F00F4008B5054B03221A70FEF7B0FBF8
:102D8000034908610020087508BD00BF1F8000408E
:102D9000BC1E002010B5074C237D43B9FEF7A0FBF5
:102DA0002169401A31288CBF0020012010BD01206C
:102DB00010BD00BFBC1E002008B51B4B1A7D002AA9
:102DC000FBD19868596858609960184B1860FEF7F5
:102DD00087FB154A1169401A3128F8D9144B196834
:102DE00018331B6872B601201075124A1068984299
:102DF000FBD910689842FCD810689842FCD30C4B61
:102E00000D4801F0E7021A600122026000F58050CF
:102E100002600A4A4FF400501060094A0E20106008
:102E2000196062B608BD00BFBC1E00204090004083
:102E30000090034004900340A0A00440A0900440F0
:102E40000C8000404008FE4340A004404408FE437C
:102E500044A004400018FE4300C004403000FE437C
:102E6000309004403400FE43349004401C18FE436C
:102E70001CC004401018FE4310C004400818FE4354
:102E800008C004400C18FE430CC004400C10FE4364
:102E90000CB004401010FE4310B004401810FE4364
:102EA00018B004401C10FE431CB004401410FE4334
:102EB00014B004400418FE4304C004400010FE4354
:102EC00000B004400008FE4300A004400408FE4394
:102ED00004A004400C08FE430CA004400808FE4374
:102EE00008A004401418FE4314C004401818FE4300
:102EF00018C004400410FE4304B004400810FE4310
:102F000008B004401400FE43149004404C08FE43F3
:102F10004CA004400420FE4304D004402410FE438F
:102F200024B004402010FE4320B004402810FE438B
:102F300028B004402C10FE432CB004400020FE4377
:102F400000D004404808FE4348A004401000FE435F
:102F500010900440190000000001000096300000AD
:102F60001200000000020000A83000002B0000004A
:102F700000030000D4300000000000000103000046
:102F8000D83000000000000002030000EA3000001A
:102F90000000000003030000820900200000000080
:102FA00004030000FE30000000000000EE030000FB
:102FB00028310000000000000000000000000000B8
:102FC00000000000920000000001050001008800E0
:102FD0000000070000002A00440065007600690038
:102FE0006300650049006E007400650072006600B1
:102FF000610063006500470055004900440073000C
:103000000000500000007B003600320066006400C3
:1030100034003100320033002D00380037006500E5
:1030200033002D0034003700660065002D003900A4
:103030003400360061002D0065003000340034009B
:10304000660033003600660032006600620033001E
:103050007D000000000040000000000104000200AC
:10306000000000000000000157494E555342000087
:10307000000000000000000000000000000001014E
:1030800057494E5553420000000000000000000068
:103090000000000000001201000200000040501D6E
:1030A0007A6005010102030109022B000201008080
:1030B000320904000001FF00000007050102400082
:1030C000000904010000FE01010409210D10270080
:1030D000040101000403090412037300630061008A
:1030E0006E006C0069006D0065001403460061000D
:1030F00064006500630061006E00640079002A03CB
:103100004600610064006500630061006E006400B9
:103110007900200042006F006F0074006C006F00A7
:10312000610064006500720012034D005300460008
:1031300054003100300030007E00000046616465BC
:1031400063616E64792076312E30350D0A00FFFF01
:04315000392A000018
:10315400080022030000000000000000000000003E
:10316400000000000000000000000000000000005B
:1031740000000000FFFFFFFFFFFFFFFFFFFFFFFF57
:04318400FFFFFFFF4B
:0400000300001000E9
:00000001FF
